:10000000003C022079F10100A5010200A5010200D7
:10001000A5010200A5010200A5010200A501020040
:10002000A5010200A5010200A5010200A501020030
:0C003000A5010200A5010200F5E100009E
:1000400038B586B004468DF805104FF6FF720120D2
:10005000ADF80220090ADFF8B85AADF80000022313
:100060008DF806108DF8043069462A78204623F072
:1000700039FB162803D12978204623F02FFB07B03F
:1000800030BD3EB504000D461ED0DFF8880A00687A
:10009000224623F01FFBFF2815D0002000900023EC
:1000A00001AA2946204612F019FE60B99DF8040005
:1000B00000F06EF9C00606D59DF8040000F068F95E
:1000C00010F0040000D001203EBDFEB516461524F8
:1000D0004FF6FF7290420D4615D100208DF80400B6
:1000E000DFF82C7A9DF80400F97988421AD232465A
:1000F000294600F03EF800B100249DF80400401CA1
:100100008DF80400EEE723F0E1FA50B100F099FB1E
:1001100040B99DF804003246294600F02AF8002430
:1001200000E014242046FEBD7CB50D4604460621A1
:100130004C43164620346A460821204620F0E6F853
:10014000A8B900F076F890B99DF80700002E14BF0A
:10015000054320EA0505E9B2814206D08DF8075033
:100160006A460821204620F0E5F8012076BD0020EF
:1001700076BD2DE9FC4106463446062388461546E1
:100180005C436A46082104F1200020F0BFF80028F3
:100190004CD100F04EF8002848D100F024FA0400B9
:1001A00002D100F018FA41E0397AE036224689009F
:1001B000304620F0ABF8002834D1204600F051F84A
:1001C0005FEA08000ED13A7A9206120E002120460C
:1001D00020F0B8FF30BB3A7A92000021204621F08F
:1001E0002FFE16E0214600F029F858B9280004D067
:1001F0002146002000F022F810B900F00CFC15E0B8
:10020000A0F800808178A9420CD085700DB900213A
:100210000180204600F025F8397A224689003046D0
:1002200020F088F800F0F7FB012000E00020BDE896
:10023000F6810622FF21684620F084BF70B5DFF802
:10024000D0381D7A002200E0521CD4B2AC4206D253
:1002500031F824608642F7D101EB840070BD0020A4
:1002600070BD10B50021DFF8A8280AE030F8213071
:10027000DB4320F8213000EB8103491C9C78E443E8
:100280009C70137A9942F1DB10BD2DE9FE4FDFF827
:1002900080480646207A0F4691469A46800022F012
:1002A00017F85FEA000803D100F095F90A206DE025
:1002B0000C9D02974FF0060B37461BFB07FB029A7B
:1002C00008210BF1200020F035F88DF804003046AD
:1002D00000F099F8227A00F079F99DF80400009076
:1002E0004246217A890006F1E00020F023F8009EC2
:1002F00002990643206A082200EBC70021F0AAFDFC
:10030000F5B110220021284620F01CFFC0B9029947
:10031000887900232A4600F0010023F0D3F9002851
:100320001CBF9DF93C00002803D0DFF8EC1701202A
:1003300008702A4610210BF123001FF0FBFF064333
:100340005FEA090205D01C210BF121001FF0F2FF2A
:1003500006435FEA0A0205D01C210BF122001FF0C0
:10036000E9FF06430D9A4AB110210BF124001FF05A
:10037000E1FF06430EAA00F031F90643A07D08B163
:1003800000F094FA404621F0ABFFF0B2BDE8FE8FDA
:10039000E0B5062358436A46082120301FF0B6FF17
:1003A00010B99DF807000EBD00200EBDDFF86007F4
:1003B0000078082110F0E0BF38B50025DFF850477D
:1003C00018E0206A06236B4300EBC50220330821A6
:1003D00098B21FF09BFF58B1206A0622FF2100EB64
:1003E000C50021F02DFD206A00EBC5010022CA7175
:1003F0006D1CEDB2E1798D42E3DBA07D10B1BDE86B
:10040000314053E231BDF8B5DFF80417DFF80C379F
:10041000C9791E680C460A4600E02A46D5B23DB1AD
:10042000551ED2B2324412F8017C8742F5D12C46D7
:10043000E4B220464D1E07E01718165C7F7817546B
:100440001A680244401C5670A8421A68F4DBAC4299
:1004500004DABDE8F84005201FF06CBFF1BD70B5AF
:100460000024DFF8AC5600E0641CE879E3B2834274
:100470000BD22B6AE6B20622FF2103EBC60020F066
:1004800061FE0028F0D0E0B270BDDFF8942611784C
:1004900039B1DFF8880601680C78204600F013F8BF
:1004A000204670BD38B500200024DFF8645603E014
:1004B000E0B200F008F8641CEA79E1B2914201D29E
:1004C0000100F5D032BD2DE9F84F4FF0060B1BFBB4
:1004D00000FB8EB081460BF1200501AA08212846B9
:1004E0001FF014FF002868D10622FF2101A820F088
:1004F00029FE002861D100F076F85FEA000803D1F8
:1005000000F069F80A205AE01C22FF2103A821F01C
:1005100097FC3A7A00F05AF80BF123060AAA102148
:1005200030461FF0F3FE60B91022FF210AA820F028
:1005300009FE30B99DF80A0001A900F0010023F07E
:10054000BDF8082200F03EF801AA082128461FF055
:10055000F1FE054603AA1C210BF121001FF0EAFE63
:100560008DF8000003AA1C210BF122001FF0E2FE0F
:10057000044603AA102130461FF0DCFE064603AAFB
:1005800010210BF124001FF0D5FE824603AA00F0D3
:1005900025F89DF800100D43254335434AEA05052B
:1005A000397A05434246890009F1E0001FF0C2FE96
:1005B0000543404621F094FE00E0002528460FB098
:1005C000BDE8F08FFF2101A821F03ABC9200FF2185
:1005D000404621F035BC04201FF00EBC04210BF175
:1005E00025001FF0A7BEDFF82875387A800021F0BB
:1005F0006FBE2DE9F84187B0FF208DF80000DFF8CD
:100600001055E87921F064FE040003D1FFF7E3FF01
:100610000A2030E01022FF2103A821F011FCEA7922
:10062000FF21204621F00CFC0622FFF7CBFF03AA96
:10063000102102201FF07EFE064603AA102103208F
:100640001FF078FE06436A46012104201FF072FE67
:100650000746E979224605201FF06CFE054601AAEF
:10066000062106201FF066FE804600F0D4F93E43C6
:100670002E4348EA060008B0BDE8F081DFF8901488
:10068000408809781FF006BEF0B5A9B006460D46B1
:10069000144623F01BF808B91420A6E0A422002178
:1006A000684621F0CDFBADF80060DFF86464F078B7
:1006B000F17B279A8DF804005208307C8DF8A00059
:1006C0004B0801F0010040EA420222F0020203F06E
:1006D000010342EA4302080922F4807200F001009B
:1006E00042EA0022480922F4007200F0010042EAC6
:1006F0004022880922F4806200F0010042EA802250
:10070000890822F0040201F00101707C42EA8102B2
:10071000279202280CBF012000200DF126077874D3
:1007200022F0C8FF412807DB707C00B108209DF84B
:10073000991008438DF89900F07CB8B10121B97483
:10074000202206F188010DF1390021F083FB2022DF
:1007500006F1A8010DF1590021F07CFB202206F1E1
:10076000C8010DF1790021F075FB00E0B874707BD1
:100770008DF8050090B1DFF8AC73102207F110017D
:100780000DF1060021F066FB9DF89900082805D1BF
:10079000102239460DF1160021F05CFB307B8DF8FC
:1007A000260030B11022DFF880130DF1270021F070
:1007B00051FB307948B1022D18BF032D03D1279882
:1007C00040F002002790012100E000219DF89900EF
:1007D0000143B0788DF8991000B1042001438DF8E1
:1007E00099106846214622F061FF29B0F0BD2DE93D
:1007F000FC41154615244FF6FF72904288460ED1F3
:100800000027DFF80C63F179F8B2884216D22A4645
:100810004146FFF789FC00B100247F1CF3E722F07A
:1008200055FF50B100F00DF840B99DF804002A467C
:100830004146FFF779FC002400E014242046BDE87F
:10084000F681002100910023417901AA01F0010104
:10085000801D12F043BA70B504460D46062045438C
:10086000082B88B0164603D1300758BF223500D573
:1008700021351C220021FFF7A6FE01AA1C212846D3
:100880001FF044FD80B99DF81E00C01F0A280BD23E
:100890009DF830000090F20801AB02F0010206F072
:1008A0000101204621F0C7FD08B070BD38B522F027
:1008B000F9FE0024964D0FE0286A0622FF2100EB86
:1008C000C40020F03FFC28B9286A00EBC4018879F5
:1008D00022F0E4FE641CE4B2E8798442ECDB31BD32
:1008E000F0B5924D0646686885B04FF6FF7438B98A
:1008F000009502238E4A2146012022F0CBFE68603B
:10090000696819B30222FF20029200230390019329
:100910000DF112072A88009704AB304608F034FD29
:1009200060B99DF810009DF8111000EB0122100035
:1009300004D0686841893046FFF7C7FB2A88686899
:100940000023214622F0A2FE686008B9012000E0E1
:10095000002005B0F0BD3EB50C46002501460095CF
:10096000002301AA204612F0B9F938B99DF8040015
:10097000FFF70EFDC00601D401203EBD00203EBDA4
:100980002DE9F0416B4F3C6806468846154603E06A
:100990002089B04224D02468002CF9D10C2021F009
:1009A00097FC040019D0268184F80A80002020607A
:1009B000E07245B10821284620F022FE606018B997
:1009C00000F029F80AE06060396811B93C6004E081
:1009D000014608680028FBD10C600CB9152018E00E
:1009E00022F050FE08B1002013E00120E0722A46F8
:1009F00041463046FFF748FE04464548C069002896
:100A00001CBF4368002B03D00022002130469847CA
:100A10002046BDE8F081204621F062BC38B505468D
:100A20004448046803E02089A84204D02468002CCC
:100A3000F9D1012032BDE07A012807D100F05CF83D
:100A400020B133480078042110F096FCE17A491C6B
:100A5000E1722846C9B200F002F8002032BD38B574
:100A6000022904462A4D02D003290DD01EE042F689
:100A7000C921FFF7E5FA02001CBFE869002818D079
:100A80004368B3B105210CE042F6A621FFF7D8FA7E
:100A900001001CBFE96900290BD04B684BB102462D
:100AA0000421204601B0BDE830401847BDE832407F
:100AB00000E031BD10B51F4A1468002101E0214655
:100AC00024686CB123898342F9D1206800290CBFC6
:100AD00010600860606808B121F002FCFFF79BFF1E
:100AE000002010BD024604201249096819B10B8983
:100AF0009342FAD1C87A70470E48006828B100685E
:100B000018B1C17A0029FAD170470020704700005F
:100B100008220020680F002053590020145800209C
:100B20005259002044550020745500208857002059
:100B30007C5B02001858002038B584B0044622F0CF
:100B4000C5FD0622417901F001018DF80E10811DCD
:100B500002A821F07FF90020009000239DF80E10DC
:100B600001AA02A812F0BAF89DF80400FFF7ABFC46
:100B700005460521204622F081FD284605B030BDFE
:100B80002DE9F04F8FB014F089FB21F069F8DFF800
:100B9000F48908F10904204621F04EFE204621F098
:100BA000B1FEDFF8E4B9584621F00AFBC8F80C00A2
:100BB000584621F03BFE22F09BF8DFF8D019086080
:100BC00022F07AF8DFF8C84908F10506A06030463F
:100BD00021F044FE22F080F8DFF8B819086008F12F
:100BE000060021F0A1FE21F0DFFDE060A01C04F171
:100BF000140118F045FF04F1240021F0F9FBDFF89F
:100C00009819A0614FF0000A04F14C0041F2707293
:100C10000023CDE900A8059019F0BCFBDFF87C09A2
:100C2000DFF87C19DFF87C79002215230090102072
:100C3000B847DFF87419102000220223B8470FF0DC
:100C400017FFDFF8681910200122B847DFF8601994
:100C500010204FF0FF324FF0FF39B8471FF076F900
:100C60001EF09CFB1FF024FC1AF03AFC20F0DAFB8B
:100C700022F042F8DFF83C19086014F073FD18F018
:100C80006BF810F045FC08F104053146284621F0C8
:100C900087F860602846314621F078F8284621F030
:100CA000E3FD08F1100020F081FF08F1140021F0AD
:100CB00007FC08F1180021F01BFCA178DFF8F868A8
:100CC0005020B047DFF8F41802461020B847A1784A
:100CD0005020B047DFF8E81802461020B847DFF888
:100CE000E4181020FB2240F64803B847DFF8D81874
:100CF0001020B8472546A178502025F8349FC5E933
:100D000003AAC5F814A0B0470346DFF8C0080221C3
:100D10000422CDE90010DFF8B8181020B8472846A3
:100D2000182121F0D1FFDFF8AC1810208022802399
:100D3000A5F80090CDF800B0B84788F80300DBF8BC
:100D40006800D949884213D0DBF86C00D749884243
:100D50000ED020F05DF8D8F80C00DFF87C18802267
:100D6000802321F031FF012188F8030088F8071063
:100D7000DFF86018102080228023CDF800B015F035
:100D800039FA88F8030015F05BFF60709BF870007B
:100D900021F034FDDBF87C0021F0C0FD1CF028FCC4
:100DA0001CF0A6FCA068807808B914F087FB09F055
:100DB00033FC13F0C7FEA1689BF8782060780978AF
:100DC00014F0C0FBA068017839B9817829B941785D
:100DD00019B9C17809B9007988B10020002520F03F
:100DE00013FBE068017851B10570DFF8C8070121F5
:100DF0000F22006800688068206120F021FB01203C
:100E000088F8090021F098FB20B19620012118F004
:100E100045FC06E04FF4C870002118F03FFC21F0BB
:100E2000E0FFDFF8E05708AE0DF13B090DF1390A9C
:100E300098F8080000214FF040424FF0FF33013096
:100E400088F8080060690FF0E7FB834698F8040013
:100E5000072822D8DFE800F0042121212113041300
:100E600060680078C8B198F80500B0B94FF4FA602E
:100E70002278DFF86C1701230090102008E06068EA
:100E80000078022809D12278DFF8501710201323A8
:100E900015F0B0F9606800210170BBF1000F00F09F
:100EA000E78000200DF11F01069007A806AA1DF09B
:100EB00054FE002840F0D980BDF81C00102840F0F6
:100EC000CF80A0789DF81F10814240F0C980069F16
:100ED0004FF6FF703988814200F0C380080AC9B21A
:100EE000912900F08080B02900F0B580D02940F031
:100EF000B880B978072900F2FC81DFE811F008001A
:100F0000B100B100B100B100230252028C020021F5
:100F1000002888F8041040F0A3800020F97A3246B7
:100F2000ADF82300B8798DF82000B7F807008DF8E8
:100F300027100821ADF82100B7F80900ADF8250009
:100F4000002017F051F8DFF8AC16DFF8AC26DFF818
:100F5000AC361020009415F04DF9000640F01083D7
:100F600010202278294600232F460090DFF89006B3
:100F70000190102015F03EF9000640F00183192081
:100F80002278394601230090DFF87C06019010207A
:100F900015F030F9000640F0F3822278DFF86C1685
:100FA0001020922315F026F94FF4FA602278DFF82A
:100FB0003016012321F008FE000640F0E18260684F
:100FC000002101701EF04AFD08F1010001214FF4DB
:100FD0007A720023CDE90010DFF83406DFF8B81587
:100FE00019F0D8F93CE03E2800F095810F2800F078
:100FF0009881102800F0A1810E2831D1B88841F2E3
:10100000054188422CD1B968087848BBB1F8010085
:10101000A28E824224D1C9787F2921D094F845201C
:10102000531C224484F8453082F84010052294F87D
:101030004510B1FBF2F202EB8202891A002284F819
:1010400045100021052900F00F826318013193F942
:1010500040301A44F6E7397907F1080022F00AFB1C
:10106000069F17B1384621F080FE5FEA4B001FD47F
:10107000DFF818050068007800287FF4D9AE98F8EA
:10108000040040F00200072806D12278DFF84C1552
:101090001020132315F0AEF8DFF8F804006800788C
:1010A00000283FF4C5AE5DE215CD5B07B168DE3ABE
:1010B000A06921F051FC0028DAD1A06920F0F2FBF0
:1010C0000028F5D0074600780138082800F2098189
:1010D000DFE810F009000701190007013C00450096
:1010E000F9001300260078680078032840F0F980A2
:1010F000032031461AF020FFF3E07868B0F80100D1
:1011000016F01EFDF1E0786801684A1E072A00F219
:10111000DD800121DFE802F0E0DFE2E0E2E2E2DF91
:101120007A68204630F8341F5288891A18BF012186
:1011300041EA410100EBC100C07D002800F0D180F0
:10114000DFF8D414102015F055F8CAE07868DFF8FD
:10115000C4140023C288D24821F036FDC1E001202A
:1011600049461AF0E9FE10B9012021F095FD022050
:1011700049461AF0E1FE10B9022021F08DFD03204E
:1011800049461AF0D9FE10B9032021F085FD04204C
:1011900051461AF0D1FE20B904200221524610F027
:1011A00099FD052031461AF0C7FE20B9052004211B
:1011B000324610F08FFD062031461AF0BDFE20B9F0
:1011C00006200421324610F085FD002021F0EEFDBE
:1011D00010B9002021F038FD012051461CF086FC9A
:1011E00020B901200221524612F000FF022021F016
:1011F000DDFD10B9022021F027FD032021F0D6FDEE
:1012000010B9032021F020FD042021F0CFFD10B9FA
:10121000042021F019FD002021F0CBFD10B90020A1
:1012200021F022FD0220494616F0A4F810B9022050
:1012300021F02AFD0320494616F09CF810B903203E
:1012400021F022FD042021F0B4FD10B9042021F08A
:101250000BFD052021F0ADFD10B9052021F004FDA6
:10126000062021F0A0FD10B9062021F0D9FC0720AE
:1012700021F099FD10B9072021F0D2FC082021F0BF
:1012800092FD10B9082021F0CBFC092021F08BFD44
:1012900010B9092021F0C4FC0A2021F084FD10B906
:1012A0000A2021F0BDFC0B2021F083FD10B90B209A
:1012B00021F0DAFC0C20494616F05CF888B90C20C5
:1012C00021F0E2FC0DE01EF0C9FB0AE0B1F1004F95
:1012D00007D0102902D1002188F80510406821F0BC
:1012E000AFFD786808B121F0ABFD384621F0A8FDCC
:1012F000DEE611297FF4B4AE112088F80400B87B33
:101300008DF82A00B888ADF820007889002800F010
:101310009A800020A2E0B8780C287FF4A1AE0C20BF
:1013200007E0B88842F2320188427FF499AE42F277
:101330003200394614F020FF92E60820002120F008
:101340002BFC8DE60520A94921F0CEFB79780029F8
:1013500040F0B2800490A08E4FF6FF71884240F0BA
:10136000A7807F890320A78621F070FD0028A06355
:1013700000F09B8008210170A06BA0F80170242070
:1013800021F064FDA16B0028E06300F08B80012256
:101390000023CDE90021804941F2707218F0FAFF74
:1013A00083E00620914921F09FFB0146BF88A08E73
:1013B000B84229D1E06B039178B1049021F0BCFDD3
:1013C00010B1049821F0BCFD049821F0E1FD0498CF
:1013D00021F036FDA06B21F033FD38461EF092FE61
:1013E00038461DF029FD4FF6FF700399023880B290
:1013F000874202D0A08EB84206D14FF6FF70A08679
:101400000020C4E91000A06408067FF429AE059806
:1014100021F096FD24E607207249334688F804003F
:101420001020BA8814F0E6FE04F11C001FF0B6FA92
:1014300000283FF415AE0746008916F081FB3846B8
:1014400021F0FEFC0CE60020ADF82600D7F80600DF
:10145000CDF82200B889ADF82800012062498DF846
:101460002B001020324639E011B2052291FBF2F137
:1014700094F84720002A84F846107FF4F1ADC9B2F1
:101480004AB212F11E0F2CDB94F8481041F0020111
:1014900002293FF4E5AD00234FF0020E02213CE0AB
:1014A00040E20100084621F0CBFC012084F848000E
:1014B000059821F043FD0498227800060CD198F895
:1014C000020048B94FF4FA604549012321F07CFB42
:1014D000606800210170C3E54549102014F08AFEC0
:1014E000BEE5D82909D394F848100229FFF4B8AD15
:1014F00000234FF0010E01210FE0CE2909D394F80B
:10150000481000293FF4ACAD012304214FF0060E32
:1015100003E04FF0020E0421022394F849C094F82E
:101520004A70ACEB0E02022F4FF00007B2FA82F2C3
:1015300038BF012752093A4208BFF4453FF490AD45
:101540000A4677461CF0A4FB0120394684F8470080
:1015500094F84900B8421CBF002084F84A0084F87F
:1015600049107DE508481C498022802321F02CFB8E
:10157000012188F8030088F806100FB0BDE8F08F4D
:1015800020F018FCFC2E0020BC240020E058002095
:10159000B4260020DC58002031D601009C2F00200A
:1015A000D9890100F5610100F1D70100310F020076
:1015B00015E80100E458002029F90100D96C021057
:1015C0002D6D02100D520210397F01106033002082
:1015D00005CC00000D03020035030200A1F9011043
:1015E000ED740110F9DC0110D9570110051E02003D
:1015F000650202109901011051FE0100342F0020F4
:101600006832002049FB0000502F00201DEF011020
:101610007854002011F101000D2B02101EF0B2BE13
:101620002DE9F84F2DED141BB0EE402A5BEC119B19
:10163000F0EE602A2BF000409FED870B50EA090185
:101640002BD0874B57EC126B5D1C0EB9AF4224D0E8
:10165000844927F000448C4209D80EB18C4206D050
:10166000884204D8B9F1000F1CD088421AD19FEDEE
:101670007E0B3046394655EC104B21F0F9FA064600
:101680000F464846594621F0F3FA02460B463046CB
:10169000394608F0EAFE41EC100BBDEC141B01B01A
:1016A000BDE8F08FB7F1FF3F02DD4FF0000A04E024
:1016B0006F4A90426BD94FF0020AB9F1000F00F067
:1016C000EA839FED690BB8465CEC10EB4FEADC72E5
:1016D00062F3DF782EB34FF0FF3202EBD7725AEA93
:1016E00002034DD0AAF101031A430FF60C1208BFF2
:1016F000083292ED008B5F4A904261D301F1444180
:10170000884240F28280AC4280F0998021F0D8FA81
:10171000222101600FF67010BBF1000F48BF0830A6
:1017200097E08C4204D0544A944201D0002CD2D18C
:101730009FED490B3246434621F0B2FABBF1000F50
:101740005CBF41463046B7F1FF3F41EC100BA4DCD3
:101750004A4A224402F5200252EA0A0210D08DEDD4
:101760000C0BBAF1010F9DF8372082F080028DF842
:1017700037200C9A18BF02460D9818BF0846D0E3D0
:1017800021F09EFA21219FED3E0B016085E79842F2
:101790007FF68BAF9C463C4B020D984248D340F2FB
:1017A00033439B1A29FA03F202FA03F3994563467D
:1017B00006BF02F00102C2F1020A4FF0000A7CE704
:1017C0009FED330B30464146CDE900EC21F018FA8D
:1017D000314A324B3532B4F5801F3ABF4FF6CC3226
:1017E000CFF6FF722146B4F5801F02EB21526FF352
:1017F0001F5128BF304641EA0508994256D3284B6D
:1018000099424FD20292012152E01548844280F061
:1018100075827546644621F053FA2221BBF1FF3FE1
:10182000016040F3DD8151EC180B2A46234660E34A
:10183000B9F1000F00F01F834FF0000A41E721F0DB
:101840003FFA222101600FF64000BBF1000FC8BF34
:10185000083090ED000B20E7000000000000F03F92
:10186000FFFFEF3F0000F07F0000000000000000DD
:10187000FFFF3F430100E0410000F03F000070BF68
:10188000000000000000F87F0000404100BF00BFE2
:101890000000000000004043CCFBFFFF8F980300D6
:1018A0007AB60B00F44B013241EA030800210292A0
:1018B000DFF8E8270991074602EBC102414692EDA5
:1018C000000B55EC106B32462B460396049008F043
:1018D000C7FD04468A46304629463A46434608F044
:1018E000C4FD1FED230B02460B4621F0D9F90790EA
:1018F00002460B460691204651460DF0E3FB089048
:101900004FF000500F460022099940EA580000EBC2
:101910008140394600F50026002033460DF0D2FB09
:1019200020F088FE039A04468A46002031462B4662
:1019300008F096FD024604980B46414608F090FDDB
:1019400002460B46002039460DF0BCFB20F072FE2B
:1019500002460B46DDE906100DF0B4FB0790069138
:101960000D460446394600223B46089E304608F0A4
:101970007CFD02460B46204629460DF0A3FB80461F
:101980008A463046394632463B4605970DF09AFB6B
:101990009FEDBB0B06460F4621F032F99FEDBA0BC7
:1019A00021F00AF920F016FE9FEDB90B21F004F9A1
:1019B00020F010FE9FEDB80B21F0FEF820F00AFE9B
:1019C0009FEDB70B21F0F8F820F004FE9FEDB60B69
:1019D00021F0F2F805460C4620F03EFE2A4623464A
:1019E0000DF070FB02460B464046514608F03DFDA7
:1019F000059D80460C460020002229462B460DF00E
:101A000061FB9FEDAB0B07460E4621F0D5F8424631
:101A1000234608F02AFD9FEDA80B00208A4621F0FE
:101A2000CBF83A46334608F01BFD02460B464046CB
:101A3000214608F015FD024608980B4629460DF090
:101A400041FB04460E46DDE90610002253460DF028
:101A500039FB2246334608F008FD07460E460020B3
:101A60002946002253460DF02DFB3A4633460446E4
:101A70000D4608F0FAFC002022462B468A4608F064
:101A8000EFFC02460B463846314608F0E9FC9FED74
:101A90008C0B21F0B5F89FED8C0B04460D46002011
:101AA000514621F0ADF821F0E3F80246DFF8F005E9
:101AB000099C0B4600EBC40090ED000B51EC100BA1
:101AC00008F0D3FC9FED820B089005460E46079167
:101AD0000020514621F094F82A463346CDE90510FE
:101AE00008F0C3FC0246DFF8BC050B4600EBC4005F
:101AF00090ED000B56EC107B3846314608F0B5FCF3
:101B00000546029888461DF087FE04468A46284608
:101B100041462246534608F0A8FC00202246534680
:101B200020F0C4FF3A46334608F09AFCDDE905325E
:101B300008F096FC02460B46DDE9071008F090FC21
:101B400041EC1A0B4846594600225B4608F088FCD7
:101B500004460D4651EC1A0B4A465B460DF0B2FAAC
:101B600057EC196B804689462046294632463B464B
:101B70000DF0A8FA42464B4608F077FC81468846AD
:101B80003046394600225B460DF09CFA07460D466A
:101B900041EC190B484641463A462B4608F065FC95
:101BA00006464D480C4600F5200081421BDD4B489F
:101BB0002044304310D19FED4A0B4846414620F067
:101BC000FBFF82468B4620F041FD02460B46504605
:101BD000594617F087F8D8B121F072F82221016038
:101BE0009FED410B42E142484249204088420FD3D9
:101BF00041482044304340F08F8020F027FD0246CA
:101C00000B464846414617F059F8002840F08480BA
:101C1000194924F00040884240F28780F04940F2A0
:101C2000134301EB10504FF4801121FA00F0012111
:101C30002044024661F31F52C0F30A515B1AA1F21D
:101C4000FF31DA40002C48BF52420992234A02F188
:101C5000814242FA01F1002201EA00033846294696
:101C600008F0FEFB024641EC190B0B464846414684
:101C700008F0FBFB0C465AE00000E03F00BF00BF4D
:101C8000EF4E454A287ECA3F65DBC9934A86CD3F61
:101C900001411DA96074D13F4D268F515555D53F47
:101CA000FFAB6FDBB66DDB3F033333333333E33FDF
:101CB000000000000000084000000000000008C014
:101CC000FD033ADC09C7EE3FF5015B14E02F3EBE91
:101CD000000000E009C7EE3FFFFFEF3F000070BFCC
:101CE000FE822B654715973C000000000000F07F46
:101CF00000FCFF7F00CC904000346F3FAC42CDE948
:101D000000EC40F2248120F0DBFF2221BBF1010F27
:101D10000160BFF665AF03E020F0D2FF2221016031
:101D2000DDE9002351EC180BE3E00020099053ECAF
:101D3000192B0020214608F093FB02460B4648462B
:101D4000414608F08DFB9FEDBE0B05460E46002078
:101D5000214620F055FF9FEDBC0B074688462846DC
:101D6000314620F04DFF3A46434608F07EFB9FED9A
:101D7000B80B089005460E4607910020214620F03A
:101D80003FFF2A4633468346069108F06EFB024623
:101D90000B46824689460DF095F99FEDAF0B044640
:101DA000884620F02DFF9FEDAE0B20F005FF20F0C0
:101DB00023FC9FEDAD0B20F0FFFE20F01DFC9FEDFE
:101DC000AC0B20F0F9FE20F017FC9FEDAB0B20F0E0
:101DD000F3FE20F011FC20F027FC04460F4650468D
:101DE000494622463B460DF06DF99FEDA50B054691
:101DF0000E462046394620F0DFFE02460B462846B6
:101E000031460BF0D9F8069B04460F46504649462A
:101E10005A4608F025FB02460B46DDE9071008F09C
:101E20001FFB05460E46504649462A4633460DF0EE
:101E300049F92A46334608F018FB02460B4620466D
:101E4000394608F00DFB20F0EFFB9FED670B20F00B
:101E5000B3FE099A41EC100B01EB0251B1F5801F62
:101E6000AEBF41EC100B10460CF096FC51EC180B79
:101E700053EC102B3DE040F213439B1A20FA03F27F
:101E800002FA03F39842634612BF4FF0000A02F0D1
:101E90000102C2F1020A884215D18348204400F5AC
:101EA000200030433FF4F9AB9C4226D99FED500B04
:101EB000BBF1FF3F50EC101BC4BF5846494640ECF5
:101EC000101BFFF7EABBA8420CD19FED470B32462F
:101ED0003B4620F0E5FEBBF1000F5CBF39463046C3
:101EE000FFF7D9BBBBF1804F1FD130463946324690
:101EF0003B460DF0E7F8FFF7CEBB8DED0A1B9FEDDB
:101F00003C0BBBF1000F9DF82F000A9A80F0800077
:101F10008DF82F0051EC100B58BF02460B9858BF9C
:101F2000084640EC102BFFF7B8BB002F3FF5C9ABBC
:101F3000594A93457FF4C5ABB0EE420AF0EE620A0F
:101F4000BDEC141B01B0BDE8F04F0AF065B89FED81
:101F50002E0B3046414620F02FFE9FED2D0B0646FE
:101F60000F4620F04DFE9FED2C0B20F025FE20F0BB
:101F700031FB9FED2B0B02460B4651EC100B08F08A
:101F80006FFA04460D4620F067FB22462B460DF003
:101F900099F89FED250B20F033FE9FED250B0446AD
:101FA0000D463046394620F02BFE20F061FE9FEDB5
:101FB000220B80460C463046394620F021FE424630
:101FC000234605460E4608F050FA00202A463346BE
:101FD00020F06CFD02460B4640462146AEE500BFB0
:101FE00002FCFFFF00BF00BF000000000000F03F48
:101FF0000000000000000000000000000000F03FB2
:10200000000000000000F0BF000000000000F0BF72
:10201000000000000000D0BF555555555555D53F1F
:10202000000000000000E03FFE822B654715F7BF6F
:1020300044DF5DF80BAE543E000000604715F73FEB
:10204000396CA80C615C20BEEF39FAFE422EE63FE7
:1020500000000000432EE63FD0A4BE726937663E02
:10206000F16BD2C541BDBBBE2CDE25AF6A56113F18
:1020700093BDBE166CC166BF3E5555555555C53FFF
:1020800000000000000000C0000000000000000090
:10209000000000000000F07F0000E03F105502004B
:1020A0002055020030550200000070BF2DE9F84FA6
:1020B00001201CF08FFC012816D1DFF8E86630788B
:1020C000002121F0D3FA040004BF00201DF094FE8B
:1020D00000202072201D11F0E9FE05F0FDFE050034
:1020E00003D1812021F0BEFA58E301206871072056
:1020F00015F017FCDFF8B096DFF8B02699F801006C
:10210000401C89F80100A879A07240203178117034
:102110000FF0C2FF2860616D4A78206DD10620D58E
:10212000816C0A681179032908D0816C08680079EC
:1021300003280CBF012000201DF05EFE206D816C85
:102140000A6890F86C0002F1080701281CBF002003
:102150001DF052FE216D486F296800F5B060C8601F
:102160004EE0C16E0A681179032908D0C16E086873
:10217000007903280CBF012000201DF03DFE206DDA
:10218000C16E0A6890F8980002F1080701281CBF88
:1021900000201DF031FE216DB5F87431D1F8A0009A
:1021A0002968DFF80C26C86097F82660DFF8040677
:1021B000032E1FD8DFE806F002061014CA6802F5E5
:1021C000B06202E0CA6802F53472CA6005F59A721C
:1021D00001881187038811E0C86800F5355002E0D6
:1021E000C86800F6B870C86005F59A701188018754
:1021F000138803E0C86800F5B060C860A5F87431C2
:1022000006222868C16801F59071C160B91C387850
:10221000C0F3801085F82E0105F594701FF01AFEAA
:10222000A87920F00DF8060004BF00201DF0E4FDA1
:1022300094F8B90086F83A000422DFF87C6507F1CB
:102240000E0105F124001FF005FE306895F806C068
:1022500000F10C03042207F10E0103EB4C101FF0F8
:10226000F9FD032207F1120105F128001FF0F2FD2C
:102270003068AB7900EB4313032207F1120103F13D
:1022800010001FF0E7FD05F12C08787D88F80200AA
:10229000022207F1160105F130001FF0DBFD0222DA
:1022A00007F1180105F132001FF0D4FD022207F1F9
:1022B0001A0105F134001FF0CDFDB8F8080068845C
:1022C000022207F11C0105F136001FF0C3FD98F84A
:1022D0000200B8F80A10400088F802000901B8F8B6
:1022E0000400A8F80A104000A8F8040089B2B8F861
:1022F00006004000A8F8060003046A8C521CDB0BA1
:102300005A438A4201D280B238B9DFF8B00400786B
:1023100080210FF031F83B2139E105F12E012846EB
:1023200021F09CF90520A881284621F093F9052287
:1023300007F11E0105F161001FF08CFD97F82300E5
:10234000400988F8000021F081F9688205F59A7249
:10235000618D401AD08005F1610197F8230000F0EB
:102360001F0088F80F00284621F06CF9616D4A784B
:10237000206DD1064CBF816CC16E0868DFF84074D7
:10238000002101714FF01C0AA97938681AFB01F18C
:1023900041F6210242520021AB791AFB03F30344B8
:1023A0005980AA791AFB02F210444160616DDFF88E
:1023B00014044A78D1060DD5DFF80C148A7851063A
:1023C0000AD5DFF80824138841F20A418B4208BF7E
:1023D000DFF8FC03C5F89C01D5F89C112846884716
:1023E0003A68A97902F10E031AFB01F15854A87951
:1023F0003A6802F10E011AFB00F3C95CDFF8D4332E
:102400001A681154A97938681AFB01F101440020B7
:10241000C87398F80C1088F80D10606D4178CA06E2
:102420001DD595F8960108B91DF0E6FCA979386824
:102430001AFB01F1014495F89601421E0A74A8792D
:1024400039681AFB00F00844002141743A68A97900
:1024500002F112001AFB01F1002242522BE0A9798D
:1024600038681AFB01F10144206D90F840200A748D
:10247000A87939681AFB00F00844216D91F84120D1
:102480004274206D3968AB79403001F112021AFBB9
:1024900003F34188D15205F5CB710078012200F099
:1024A000030082400A70226D92F84000800814BF39
:1024B0000120022008713968A879DFF81CB301F106
:1024C000140231681AFB00F301EB4010D050A879D8
:1024D00039681AFB00F00844C0498161DBF8140038
:1024E0000078C1074CBF1F200F20DBF814100978BB
:1024F0008A0748BF40F02000DBF8141009784A072B
:1025000048BF40F04000DBF8141009780A0748BFC4
:1025100040F080003168AA7901EB421318723068EC
:10252000A97900EB41120B2050723168AA7901EBB6
:1025300042100421AA4A81721078012806D131681C
:10254000A87901EB40120121D17207E0DBF82400E9
:102550003168AA79407801EB4213D8723168A879C2
:1025600001EB40121F2111763068AA7900EB42116D
:1025700000204876A8790FF0ABFEAA7931685201A5
:102580008850AA7931685201885820B90721284615
:102590001DF094FE02E19348AA79016801EB021054
:1025A00021F04CF8A87931688E4B01EB4012196884
:1025B00001EB00105060A979306800EB41125168BE
:1025C000C8F83C10AA79520181587C48C8F84410D8
:1025D000042100780EF0D0FE616D4A783868D1068B
:1025E00048BF02210AD4A9791AFB01F101440A7CEF
:1025F00002F00302022A14BF04210621B8F80420C5
:1026000095F806C04FF4C8738A18698AAA615143C5
:10261000B1FBF3F35B1C6B611AFB0CFCD5F800E01B
:102620006044DEF80CC040F6C41101FB02C2D21AAD
:10263000A2F5A8628260AA7938681AFB02F28318B0
:102640009A682B689A6000F10C03AA791AFB02F2CF
:102650000C309B5C03F0EF038354A8793A681AFBB3
:1026600000F002F10C030C321B5C03F07F031354E7
:10267000A8793A681AFB00F002F10C030C321B5CDB
:1026800003F0F00343F002031354AB7938681AFBEC
:1026900003F31844427B02F0F00242F0010242735D
:1026A000AA7938681AFB02F2024490682B68186114
:1026B0003068AB7998F802C000F1140268694000F4
:1026C0005B0111FB0C0000F5F660D05095F8960107
:1026D00004280DD13268A87902F114034FEA401C96
:1026E000143253F80C00AB795B0100F56160D050F7
:1026F0003068AA7900F114034FEA421C53F80C2009
:10270000C5F83421AA7900EB4210C37C03F0F00332
:1027100043F00403C374DBF830003268AB7900681F
:1027200002EB431CB8F8062042436423B2FBF3F3E8
:102730005943A1F59661CCF81C103068A97900EBDB
:102740004110C27E02F0F00242F00402C276A97982
:1027500038682A681AFB01FA00EB0A01516095F803
:10276000FD00010703D50E21284620F063FF1E4916
:10277000072008702046AA7989F802201BF04AFC3D
:102780001A488178880704D5AA790021204620F0CC
:102790004DFF28681649174A41618261BDE8F14F33
:1027A00020F0E2BBD50F0020780E0020D70F0020CC
:1027B000900F00208E0F00209C0E0020C70F0020DD
:1027C000980E002081010210C00C00209A0F0020FA
:1027D0004DE501100458002060540200980C0020C0
:1027E000CC0F0020A40E0020C80F0020200E0020D7
:1027F000B1F30000020480802DE9F84F2DED108B1D
:10280000ADF5247D00910A90BE99DFF804079A4641
:102810009FEDDB8B002750F82130AAF1010019460B
:102820000B931C181823D11E91FBF3F121EAE171DF
:102830000D1AA1EB8100099102EBC0000190880004
:10284000DFF8D01668AEA0EB8A00084400F1040857
:10285000A7420FDCB0EE480AE819F0EE680A05D48A
:1028600058F827001CF0D8FF41EC100BA6EC020B27
:102870000137EDE768A89FEDC28B4FF0000918AE55
:1028800000EBCA00A0F108080B98814520DCB0EEEF
:10289000489A0A9C00274546F0EE689A57450EDA9A
:1028A000B4EC020B51EC100B95ED000B20F0F0F99D
:1028B00020F0E2F941EC190B083D0137EEE706EB99
:1028C000C90008F1080809F1010980ED009BDBE768
:1028D00090ADDDF82C809FEDACAB9FEDADBB9FEDD7
:1028E000AECB9FEDAFDB9FEDB08B9FEDA5EB9FEDEA
:1028F000B0FB281F059000EB88000490A6F10800AB
:1029000006900198C0F12F010391C0F130011838F1
:102910000291079006982E4600EBC80B18A8CDF838
:10292000208000EBC80090ED000BB8F1010F28DB10
:1029300059EC105B53EC1A2B284649460CF0C2FBAD
:1029400019F050F91CF068FF53EC1B2B07460C469E
:102950000CF0B8FB2A464B4690AD07F086FD19F007
:1029600041F99BED000B01C63A46234651EC100B92
:1029700007F07BFD41EC100BABF1080BA8F101084F
:10298000D3E7079F38460BF007FF54EC106B53EC6E
:102990001C2B304621460CF095FB41EC100B0BF044
:1029A0000BFA51EC100B53EC1D2B0CF08BFB324649
:1029B000234607F05AFD04460E4619F013F98046E7
:1029C0001CF02AFF02460B462046314607F048FD20
:1029D00041EC190B81460C46012F32DB089E029B0D
:1029E00005EB860050F8041C41FA03F202FA03F3E7
:1029F0009044C91A40F8041C039841FA00FBBBF14B
:102A0000010F5EDB00270020B04210DA55F82010DD
:102A100017B16FF07F4202E039B14FF08072511A66
:102A2000012745F820100130EEE70027FBE7079863
:102A3000012825DB0198192818D01A2820D15E48D2
:102A400017E0089E5FB153EC1F2B4846214616F055
:102A50003FF9002840F091804FF0000B31E005EB8A
:102A6000860050F8040C4FEAE05BC8E7524800F5D6
:102A7000800005EB860151F8042C104041F8040C4D
:102A800008F10108BBF1020F1BD151EC180B4A46AB
:102A9000234607F0E5FC41EC190B87B10446B0EE84
:102AA000480A07980D46F0EE680A0BF075FE53ECE5
:102AB000102B2046294607F0D3FC41EC190B4FF0B0
:102AC000020B059C51EC190B53EC1E2B16F0E2F88F
:102AD000002873D0002031460B9A914204DD54F84F
:102AE000212001391043F7E700280498B14640F04F
:102AF000818050F8041909F101090029F9D00AEB85
:102B0000060068A90DF1600B01EBC008771C4E456B
:102B100030DA0998DFF8FC13384451F820001CF033
:102B20007BFE06EB0A0268ABB0EE4E9A41EC100B4E
:102B30000A9C0025464603EBC202F0EE6E9A82ED37
:102B4000000B55450EDAB4EC020B51EC100B96ED70
:102B5000000B20F09DF820F08FF841EC190B083E97
:102B60000135EEE70BEBC70008F108083E4680EDA3
:102B7000009BCBE7C84690ADCCE64FF0020B41E797
:102B80000000000000000000000000000000703E97
:102B900000000000000070C1000000000000C03F05
:102BA00000000000000020C0000000000000F03F16
:102BB000000000000000E03FFFFF3F00DDF8049050
:102BC000B0EE490AF0EE690AC9F118000BF0E4FD15
:102BD00054EC105B9FEDCC0B2846214653EC102B98
:102BE00016F076F880B92846214618F0FBFF074614
:102BF00090A924E00798CDE909B854F82610013EC1
:102C000018380029F9D01FE053EC1A2B284621462A
:102C10000CF058FA18F0E6FF07461CF0FDFD53ECE7
:102C20001B2B0CF04FFA2A46234607F01EFC18F027
:102C3000D9FF90A9CDF81C9041F8260001360798DD
:102C4000CDE909B841F826709FEDAD0B0BF0A4FD5E
:102C500018A8B0EE408A354658EC1ABB089600EB2F
:102C6000C609F0EE608A30464C46B5F1FF3F1BDDE9
:102C700090A850F825001CF0CFFD57EC186B0246C9
:102C80000B46304639460CF01DFA41EC100B30462D
:102C900039465A46434684ED000B0CF013FA41ECDA
:102CA000180B083C013DE0E79FED938BDFF868A22D
:102CB000DDF820B00DF58078BBF1000F25D4089821
:102CC000B0EE489A00264C465746F0EE689AA0EBC4
:102CD0000B050CE0B7EC020B51EC100BB4EC020B43
:102CE0001FF0D6FF1FF0C8FF41EC190B01360B98FF
:102CF0008642D8BFAE42EDDD08EBC500A9F1080958
:102D0000ABF1010B80ED009BD6E7BE99481E02286F
:102D100015D3002969D0DDF820B0032940F0E28006
:102D200008EBCB0A5746BBF1000F72DD1EF0D2FA5A
:102D30001EF08CFF1FF066FC1FF0BAF9F3E7089F46
:102D40009FED6D0BDDF80090099E08EBC7043D4632
:102D5000002D0AD451EC100B94ED000B1FF06CFF0A
:102D600041EC100B083C013DF2E78DED100B53ECEC
:102D7000102B002E9DF8470080F080008DF8470052
:102D8000109808BF1046119908BF194641EC100B66
:102D9000DDE9400189ED000B07F062FB41EC100B0F
:102DA00008F108040125BD4209DC51EC100BB4EC1C
:102DB000020B1FF041FF41EC100B0135F3E78DEDE5
:102DC0000E0B002E9DF83F000E9A80F080008DF8CB
:102DD0003F0051EC100B08BF02460F9808BF084691
:102DE00040EC102B89ED020B7CE0089E9FED420B1E
:102DF000009D099F08EBC604002E19D451EC100B5E
:102E000094ED000B1FF018FF41EC100B083C013E45
:102E1000F2E7DDF820B05746BBF1010F1EDD1EF0D2
:102E200059FA1EF013FF1FF0EDFB1FF041F9F3E715
:102E30008DED0C0B002F9DF837000C9A80F0800070
:102E40008DF8370051EC100B08BF02460D9808BFF3
:102E5000084640EC102B85ED000B43E09FED260B60
:102E6000DDE90845022C0BDB51EC100B9AED000B51
:102E70001FF0E2FE41EC100BAAF1080A013CF1E759
:102E80009DED401B3DB38DED121B9DF84F0080F072
:102E900080008DF84F009DED121B009981ED001B05
:102EA0008DED140B9DF8570080F080008DF85700D1
:102EB0009DED140B81ED040B9DED420B8DED160B7A
:102EC0009DF85F0080F080008DF85F009DED160B8F
:102ED00081ED020B06E000989DED422B80EC041B77
:102EE00080ED040B0A9800F007000DF5247DBDEC81
:102EF000108B01B0BDE8F08F000000000000000062
:102F0000000000000000F03F0000000000007041E1
:102F100064590200984C0200A05302002DE9F04FC2
:102F2000054687B0A978DFF8DC66002710294FF046
:102F3000060A3CD8DFE811F0110061036103610368
:102F400061033C00CB0061036103C5021101FC0079
:102F5000160361039702DC0259036878002826D122
:102F600020F060FB044620F059FB05461CF002FFF0
:102F70008DF800002246102102201DF0DBF92A46C0
:102F8000102103201DF0D6F96A46012104201DF00E
:102F9000D1F99DF80000012818BF032807D10120AE
:102FA00016F0AAFB0246062106201DF0C3F924E311
:102FB00068780028FBD195F80CB06C89009000234C
:102FC000E97801AA01F00101281D0FF087FE002811
:102FD0004FF0010871D19DF80400FDF7D9F9814641
:102FE000BBF1080F08BFB846307A80001FF070F9B7
:102FF000050003D104201CF0FFFEFEE270780228D9
:103000000CBF0120002000905B469DF804104A464A
:103010002046FDF720FC1422002102A81EF010FF1C
:103020009DF804001AFB00F002AA102124301DF0C4
:103030006DF9A8B91022FF2102A81EF083F878B913
:103040009DF804001AFB00FA06AA04210AF12500E3
:103050001DF05CF902AA09F00101204620F0DAFA1D
:10306000317A9DF804002A468900E0301DF04EF9BF
:1030700098B92846FDF7F5F8BA4609E005EB800057
:10308000018819B1827820461DF062FF0AF1010A19
:10309000317A5FFA8AF08842F0D3B07A30B95FEAC9
:1030A000897003D5317820461DF0F4F89DF80400AE
:1030B000FDF7A9F928461FF013F97078022805D109
:1030C000B8F1000F02D0204616F016F995E2A88854
:1030D000FDF7F0FC20F09AFA0028F7D1F07D0128E6
:1030E00008D1FDF7DFF9F279706AF77500211EF05B
:1030F000A7FE17E0307E012803D1FDF77AFA377674
:1031000010E000240AE0706AE5B2415D012904D1B3
:10311000E0B2FDF7D8F9716A4F55641CE0B2F1795D
:103120008842F0D350201DF0A3FFFDF745F964E27B
:1031300020F0A8FA00280CD0F06900281CBF046811
:10314000002C07D0286900906B7B2A7B6989E81CDA
:10315000A04751E26889012144E2687800240028F0
:1031600040F0DA80A879C10740F1D680082200211A
:1031700005A81EF065FEA88820F0A8FA040000F05B
:103180008E806F694FB30622002107F111001DF0F8
:10319000D9FF68B31022002138461DF0D3FFD0B903
:1031A000387C00F001084FF0000909F1010987F8A7
:1031B00011900020009000230022414607F11100E9
:1031C0000FF08CFD00285FFA89F002D10028ECD1C5
:1031D00001E000280CD1002068610622607900F02F
:1031E00001008DF81A00A11D05A81EF033FE1FE096
:1031F0006F69EFB1387C00F001008DF81A000622EB
:1032000007F1110105A81EF025FE6079012805D1FE
:103210000622A11D04F10C001EF01CFE062207F17F
:103220001101A01D1EF016FE387C40F002006071F6
:10323000A879410720794CBF40F0020000F0FD0062
:103240002071A9790A0754BF00F0DF0040F0200088
:103250002071A8799DF81B10DFF8AC83800800F07E
:10326000010008438DF81B004FF0FF09A979C90838
:1032700001F0010140EAC1008DF81B00FF246969DB
:103280001E2779B3102268461EF0E4FD102168461F
:1032900020F0B8F94FF0000BDFF870930CE0FDF769
:1032A0002BFC0028D5D0307804210EF065F8D0E74B
:1032B0000BF101005FFA80FB99F80000834510DAFA
:1032C000D8F8001007FB0BF00A5CFF2AF0D0084486
:1032D00000F10D01102268461EF084F90128E7D1A3
:1032E0005C46A1460020009000239DF81A1004AA15
:1032F00005A80FF0F3FCB9F1FF0F5CD034285AD1C8
:10330000707D30B3012856D1A888052120F0B6F988
:103310000124A888FDF7CEFB68780B2804BFA88895
:10332000FDF70AFCF06900281CBF4368002B0FD092
:103330006A78A888012198476878002808D1A87978
:10334000C10705D5F369A88822465C680321A04718
:103350004BE1D8F80000002107FB09F4009100239D
:10336000015D401C04AA20440FF0B8FC18BB9DF876
:103370001000FDF7A8F8F0B9FDF71EF8FDF76FF89B
:103380008DF81000E86800280CBF002101690022B8
:1033900001900392029105A9686900902B69AA68BF
:1033A0009DF81000FCF771FF0446A888FDF798FA15
:1033B000200046D14BE00020009000239DF81A1019
:1033C00004AA05A80FF08AFC20B1FDF748F88DF893
:1033D000100019E06869B8B19DF810001AFB00FAF6
:1033E0006A4610210AF123001CF090FF60B91022F8
:1033F000FF2168461DF0A6FE30B99DF81A0005A908
:1034000000F0010020F05AF99DF81000F17988428F
:1034100027D2E86800280CBF002101690022019032
:103420000392029105A9686900902B69AA689DF82A
:103430001000FCF72AFF0446A888FDF751FA200087
:1034400005D09DF81000FDF73EF8FCF7B5FF200011
:1034500008D1707A0028A8887FF45CAFFDF7DEFA07
:103460005AE7152455E7687806281FD1A88820F068
:103470002DF9D8B1317D491E032917D8DFE801F0B5
:10348000020E08134179A8880022FDF779FA0DE0B1
:103490000022002140F2094003F086FEA8880521A1
:1034A00020F0ECF802E0A888FDF746FBF069002860
:1034B0001CBF4368002B03D06A78A8880221984774
:1034C0009AE000970023E97801AA01F00101281D84
:1034D0000FF004FC0028F3D19DF804001AFB00FA59
:1034E00005F10C0204210AF125001CF023FF83E002
:1034F000F06900281CBF4368002B03D0A888002275
:1035000000219847707810B9A88805216AE0A8883A
:1035100020F0DCF8040070D0A87AC10712D500971B
:1035200000236179002201F00101A01D0FF0D6FBFC
:1035300000281EBF60790028012803D0E868C0F386
:10354000402028B1707C022807D1A87A010704D452
:10355000A888032120F052F84FE06179A88805F18E
:10356000080227E02F7BAD88284620F0AFF8040042
:1035700042D020F087F800283ED1009000236179E6
:1035800001AA01F00101A01D0FF0A8FB28BB9DF8C6
:103590000400FCF7FDFE07F00C07042F11D0082FE4
:1035A0000BD00C2F0FD100F0090109290BD0617944
:1035B00000222846FDF7E4F91EE010F0090F02D1C1
:1035C000F5E7C107F3D501220092A37C9DF8041012
:1035D00002462846FDF73FF90EE070780028E6D154
:1035E0000521284620F00AF806E0FDF785FA18B113
:1035F000307804210DF0C0FE0127384607B0BDE841
:10360000F08F00BF08220020680F00204D590020D5
:103610002DE9F84F2DED068B96B059EC105BEB4879
:1036200029F0004686421CD8B0EE408A284649461A
:10363000F0EE608A18F0D6FAE5498E4202D80028EA
:1036400000F0FD819FEDE41BB0EE480A0020F0EE93
:10365000680A16B0BDEC068B01B0BDE8F04F08F06B
:10366000B7BADF48864208D3284649462A464B4621
:1036700006F0F6FE41EC180BE1E1DA48864213D879
:103680004846DB496FF31F50884261D0F1488642BB
:103690004FD8B9F1010FC0F24A819FEDEF0B1EF038
:1036A0008DFF9FEDEF0BABE1CF48864210D8EE487F
:1036B000864249D8ED4886424AD0B9F1010FC0F29E
:1036C00099819FEDEB0B1EF079FF9FEDEB0B34E141
:1036D000C64886423CD9EA489FEDEB1B0DF1400BF2
:1036E00000EB165057EC11AB0390A6EB005040ECEA
:1036F000105B0025102D00F0EA8054EC106B0BEBF2
:1037000005083046214618F06DFA1CF085F841ECAA
:10371000100B02460B463046214688ED000B06F0A2
:103720009FFE52463B460BF0CDFC41EC100B08359A
:10373000E0E7B9F1010FC0F215819FEDE70B1EF034
:103740003DFF9FEDE70B13E1CE48864240F0E58058
:103750009FEDEB0B284649461FF092FA9FEDEA0BCE
:1037600053EC102B06F081FE9FEDE90B53EC102B70
:1037700006F07BFE9FEDE00B83468A461FF080FA41
:1037800002460B462846494606F06FFE9FEDD80BD1
:1037900004460D46584651461FF072FA1FF09FF935
:1037A0002046294645EC194B06F05AFE41EC180B11
:1037B000C1F30A505146C0EB1657584618F012FA9A
:1037C0008046112F6DDB9FEDD40B300D51460290DA
:1037D00058461FF055FA0646CDF80C80884620461C
:1037E00029463246434606F03BFE81460F4641ECF1
:1037F000190B204629464A463B4606F031FE434611
:103800003246DDF80C8006F02BFE9FEDC50B04461A
:103810000D46584651461FF033FA22462B4606F015
:103820001FFE1FF05CF94846394606F019FE41ECD0
:10383000180BC1F30A500299081A322831DB9FEDA8
:10384000BA0B584651461FF01BFA06460C4648462E
:1038500039463246234606F003FE80460D4641ECCB
:10386000190B4846394642462B4606F0F9FD3246CA
:10387000234606F0F5FD9FEDAE0B04460E46584676
:1038800051461FF0FDF92246334606F0E9FD1FF0D0
:1038900026F94046DDF80C80294606F0E1FD41ECB2
:1038A000180B51EC190B53EC182B06F0D9FD53EC07
:1038B0001A2B06F0D5FD41EC110B08F0030002288D
:1038C0005ED0012800F0A48000283ED1B1E08DED4B
:1038D000140B9FED6F0B0BF11004042556EC107BBD
:1038E00094ED000B3A46334651EC100B15F0D2F92B
:1038F000083C013D0028F3D101202B46009010A880
:103900000CA9039AFEF778FF9DED0C8B8046B9F168
:10391000FF3F42DD9DED0E1BCFE7B9F1010F7ADBD2
:103920009FED610B1EF04AFE9FED610B79E09FED6C
:103930006E0B1EF043FE9FED6E0B1EF0B1FB1EF0F2
:103940009FFB1FF089F941EC110B1EF079FE8DED04
:10395000040B9DF8170080F080008DF817009DED96
:10396000048B6CE09FED580B1EF028FE9FED580B6A
:103970001EF096FB1EF084FB1FF06EF941EC110B5C
:103980001EF013FD8DED060B9DF81F0080F08000EA
:103990008DF81F009DED068B51E09DED0E0BC8F1DB
:1039A00000088DED0A0B8DED088B9DF82F0080F03F
:1039B00080008DF82F009DF8270080F080008DF8A2
:1039C00027009DED0A1B9DED088B76E7FB21E93F63
:1039D000FFFF4F3E00BF00BF0000000000000000DE
:1039E0000000F07F7A6A0F403B461C40FA213941C3
:1039F000FB2109009FED300B1EF0E0FD9FED300B29
:103A00001EF04EFB1EF03CFB1FF026F941EC110BA3
:103A10001EF016FE0FE09FED200B1EF0CFFD9FED78
:103A2000200B1EF03DFB1EF02BFB1FF015F941ECA7
:103A3000110B1EF0BAFCB0EE408AF0EE608AB0EED8
:103A4000480AF0EE680A16B0BDEC068B01B0BDE87E
:103A5000F08F00BF7CD9024000004054FB21F9BF29
:103A60003163621A61B4D0BDBCFD15407CD91240EF
:103A70000000307F7CD912C0CA9493A7910EE9BD93
:103A8000EAFBFFFFFB21194000000000000070412D
:103A9000000000000000000000004054FB2119401D
:103AA0003163621A61B4F03D00004054FB2119C03B
:103AB0003163621A61B4F0BD0000307F7CD91240DE
:103AC000CA9493A7910EE93D00004054FB210940A0
:103AD0003163621A61B4E03D00004054FB2109C02B
:103AE0003163621A61B4E0BD00004054FB21F93F2C
:103AF0003163621A61B4D03D00004054FB21F9BF2C
:103B000083C8C96D305FE43F000000000000384307
:103B100000000000000038C30000601A61B4D03D0E
:103B20007370032E8A19A33B0000002E8A19A33B51
:103B3000C14920259A837B392DE9F84F16F0D6FB31
:103B4000DFF8BC14DFF8BC9408884988A9F8121083
:103B5000A0F52F7299F80610A9F81000B2F5FA6FC7
:103B600000F23C81002900F03981002089F806002C
:103B7000B9F8100040F6FC01884205D840F25131F6
:103B8000884204D840F252310846A9F8101099F83A
:103B90000820DFF8804499F8071024F81200B9F8DB
:103BA0001220A2F52F73B3F5FA6F03D811B10021DB
:103BB00089F80710B2F52F7F06D399F805301BB9A5
:103BC00040F68D239A4237D34A1C99F8041089F89D
:103BD0000720D2B2052A03D311B9012289F80520A2
:103BE00051BB40F25231884226D8DFF82C640120C4
:103BF0000E25002789F8040089F8025037700BF071
:103C00005BFB30781EF05AFE112011261DF0FCFBE4
:103C100099F8010089F8057012280DD3DFF8E80340
:103C200089F80160DFF8E8130E22006880F8275059
:103C3000DFF8D8031EF0A4FBB9F8121040F6FC0020
:103C4000814205D840F23D30814204D840F23E30F6
:103C50000146A9F8120099F80820DFF8B403002300
:103C600000EB4202918100210022032B08D034F89E
:103C70001350294400EB43050133AD892A44F4E78E
:103C8000DFF8988399F8024089B2E54E642740F244
:103C9000AA5399F80450D8F800E08EF80A4003249B
:103CA000B1FBF4F111FB076191FBF3FCDD49A1F8D5
:103CB00000C091B240F2BE52B1FBF4F111FB0761BA
:103CC00001F5FA6191FBF2F1D74A8CB2118065B926
:103CD000B9F80C20012A40F0AF801E2C00F2AC8015
:103CE0001FFA8CF11F2980F0A7800022A9F80C2070
:103CF000AEF808408EF80B20DFF830E3CC4BCF4E07
:103D00009FEDCF0AB9F80AA0BEF800101980C94B80
:103D10001C6823895D1AC849AEF800300D60B9F8F7
:103D20001410BAEB0101316012D095FBF1F64FF699
:103D3000FE77BE420CDCC34FBE4209DB00EE101A18
:103D400001EE105AB8EEC00AB8EEC11A81EE000AB0
:103D5000BD49A9F814A081ED000AA17A41B3BB497D
:103D600009680978112923D340881FFA8CF164244B
:103D7000B74D41430020002A08BFB1FBF4F099F889
:103D80000010012928805FD1002B1C4608BF0124A8
:103D900001045DD0AF49D9F8182009888B425CD264
:103DA000002A5AD12E467746A9F80A00824696E0A4
:103DB000A7484FF0000AA9F80AA0A0F800A0D8F878
:103DC0000000A0F804A099F808000130C1B202294F
:103DD00088BF002089F80800BDE8F88FB0F52F7F74
:103DE00004D340F68D229042FFF4C2AE481C89F8FD
:103DF0000600C0B20528FFF4BBAE99F80300002806
:103E00007FF4B6AE4FF486701024A9F8020010209B
:103E10001DF0FAFA99F801001128FFF4A9AE7A48CA
:103E20000C2189F801400C22006880F8271077489F
:103E300077491EF0A5FA9BE6002A7FF459AF1F2CA4
:103E4000FFF456AF012251E7A9F80A008246B6E70F
:103E50004FF0000A2E4677463FE08B4219D3C2B995
:103E600000EE104A01EE101A77461DF0DBFE41EC21
:103E7000100B9FED551BFDF7D3FB0120C9F818006F
:103E800051EC100B13F016FD00EE100A28882E4698
:103E900019E08B4273D3002A71D000EE104A01EE74
:103EA000101A2E4677461DF0BDFE41EC100B9FED1B
:103EB000461BFDF7B5FB51EC100B13F0FBFC00EEBD
:103EC000100AB9F80A0001EE100AB8EE411A20EE05
:103ED000010ABDEEC00A10EE10AAA9F80AA06000FF
:103EE0001BF09AFC9FED3A0B53EC102B0BF0EAF809
:103EF0009FED390B1EF098FE9FED390B02460B46E5
:103F000051EC100B09F058F89FED370B1EF08CFEAA
:103F10009FED370B1EF088FE9FED370B04460D46D4
:103F20005BEC108B42465B4614F0D2FE00281CBFAF
:103F30005D4644462046294617F054FE1FFA8AF192
:103F4000A9F81600DFF8D480814284BFA9F80A00DE
:103F5000824630881FFA8AF1814284BFA9F80A009C
:103F600082463C48398800888142FFF428AFD9F85E
:103F7000180000283FF423AFA9F80EA01FE72E4633
:103F800077468B42ABD2002AA9D099F8091080B2AB
:103F9000B9F80E304A1C4843C1F1140101FB03007B
:103FA000142189F8092090FBF1FAD0B21528A9F85C
:103FB0000AA094D3012089F809000020C9F818004C
:103FC0008DE700BF00BF00BF0000000000000840F8
:103FD000EA2E4454FB2109400000000000004E403E
:103FE0000000000000C0724077BE9F1A2FDDE23F44
:103FF000120DF736A2204D3F000000000040CF40D8
:1040000060580020E02E002090580020A05800208A
:104010002C300020A65700207C5900209858002002
:10402000F8B3FEFF3C590020325900202A590020E5
:1040300028590020945800207C58002070580020F7
:10404000000000000200FFFF805800209C58002064
:10405000245900202C5900202DE9F04F85B00D4641
:104060000295044615F8011B8DF801100022DFF8B7
:10407000E41488788DF8002004F1660B1EF0E0F857
:1040800001902C219DF80100DFF8CC24032804F1D5
:10409000F40604F5B07A04F59C7704F5C87804F2C8
:1040A000171900F0E180072800F01382082818BFD4
:1040B000092811D00C2800F0D7810F2811D0112821
:1040C00000F04481182800F092811A2800F05781EE
:1040D0001B2800F07C811AE22946204614F012FDCC
:1040E00015E2707ADFF8748481070AD40F2089F80A
:1040F000020020461FF07EFA002872D198F80000D6
:10410000DCE12878697800EB01223A82A878E97826
:1041100000EB01227A822879697900EB0122BA82C8
:10412000A879E97900EB0122FA82287A3876697A4F
:10413000A87A01EB00227A83E87A297B00EB01223E
:10414000BA83687BA97B00EB0122FA83E87B297C98
:1041500000EB01223A84687CA97C00EB01227A847E
:10416000E87C297D00EB0122BA84687DA97D00EB03
:104170000122DFF8EC03FA8401788A0658BF4FF079
:104180001A0A13D504F5AA700490798B0391387E2E
:10419000029021890191F88A0090BB8A7A8A398A33
:1041A00020461FF023FAE8B14FF01E0A707A41074B
:1041B0000AD40F2089F8020020461FF01BFA0028BD
:1041C0000FD198F8000079E152460F2120461FF0E8
:1041D00009FAF88A0090BB8A7A8AA179504616F0CB
:1041E00081F972E104F18600798A81800023BA8A1C
:1041F000C2800222F98A018102704380A18EC91D0A
:10420000ABF81E10628E8188B1EB520F02BFC188DD
:10421000A28E914202BF0089E18EB0EB111F21D026
:104220009BF81000012804BF9BF811000F280CD048
:104230009BF8150000281CBF9BF811001A2804D019
:104240000F218BF81A10FE217CE0FC2120461FF084
:10425000F1F9F88A0090BB8A7A8A398AA0791FF02E
:10426000BDF932E110216DE0707AC10709D43178CF
:104270001A200129707002D1FF220D213DE00D218D
:1042800060E000208BF800008BF8060001223271FC
:104290002946082204F1B0001FF09CF901460222D1
:1042A00004F1B8001FF096F904F1A80501460822B0
:1042B00028461FF08FF90746082128461FF0A2F96B
:1042C00004F19C050422394628461FF083F9042195
:1042D00028461FF097F904F1A0001FF077F904F1C8
:1042E00098001FF06FF99F48018841F0800101801C
:1042F0003078012805D1FF22042120461FF05EF905
:10430000E3E09BF811600F2E18BF142E07D00E2E7D
:1043100018BF0C2E03D01A2E18BF162E11D19BF8E1
:104320001070FF22042120461FF048F9012F06D10A
:104330008BF81A601A2E14BFFD21FB2102E03146D2
:1043400000E0042120461FF075F9BEE028788AF8C5
:1043500000001A286B788AF8013040F0D880106885
:10436000A679431C4E4300209855A379126811FB8F
:1043700003F111440871A1799AF80100C0E0A7790E
:1043800010682E784F43074406F01F0317F8210FDB
:10439000B60938B17878F040C00703D598F8060020
:1043A000042805D120221A2120461FF01BF98CE099
:1043B000FB701068A27911FB02F10144204681F8DC
:1043C000236000211EF082FD0028F0D174E0A37963
:1043D00010684B430344D88808B900265E70106803
:1043E000A27911FB02F10144002008716DE06978A7
:1043F0002878884204BF084010F0070F6DD19BF861
:104400001100162806D198F80620A179134600203D
:104410000CF04CFF022088F802000121019841773E
:10442000012398F8060098F80A1088F80000BAF8F6
:104430001C201FF0BFF8BAF81810814209D3BAF84F
:104440001C2098F80A1098F8000001231FF0B2F819
:104450000146AAF82E10012198F8080040F040000B
:1044600088F80800397030E0707E012810D015F807
:10447000011B31770222294604F589701FF0AAF842
:104480000146022204F58A701FF0A4F8012070761C
:104490009BF8060030B93D21012289F8011089F806
:1044A000002012E0F07E002804BFB07E00280CD16E
:1044B00020461FF07BF830B9284800784FF480413F
:1044C0000CF05AFF01E00120F07601218DF8001078
:1044D00021E028780F2816D01A2818D1A07913685F
:1044E0004843184400234370A079126811FB00F17F
:1044F00050180371F07A00F0FB00F0721A20A179D5
:104500000AF055FAE1E7707A00F0FD00707220467B
:1045100002991FF047F89BF811001A2815D19BF853
:10452000120017281CBF1028FC280ED19BF8106021
:1045300020461FF033F8012E03BF1A208BF81A0013
:10454000FB211A2120461FF075F89DF8000005B0E8
:10455000BDE8F08F780E0020EC570020C70F002038
:10456000200E00209C0F00202DE9FE4F0446002065
:10457000009080460CB91BF03FFC04F1500641F658
:10458000230037683880A7F8028002223A737A73D2
:10459000694620460DF0B0F908B9072050E20099AD
:1045A00001B1B860B8682061DFF89804017884F838
:1045B000B8107068407A18F00FFA25302076B8737A
:1045C00087F80F807168087D022804BF00201BF067
:1045D00013FC7068007D012802D10020002104E056
:1045E00083280CBF0620022020213874797404F13E
:1045F0002405DFF854A4DAF83C00416908686979B9
:1046000001EB41010844B0F801207A8270684178DA
:1046100048060AD5607DC10604D5E07F40F0400021
:10462000E07702E040F04000607507F15C0904F1BA
:10463000300089F80080A97E890001F0040189F822
:104640000010B866607DC10654D5726851788A063C
:104650000BD500F0FE0060757068417811F0030F13
:1046600003D1E07F00F0FE00E077607D1EF092FF56
:10467000A0750023387CA27DC0F38001521C00F09D
:1046800003001EF083FFA0831E23A28B02F59B7004
:1046900090FBF3F31E2101FB1300C0B208B1C0F17F
:1046A0001E00821802F59B7262831E23A28B02F504
:1046B000967290B290FBF3F301FB1300A283C0B299
:1046C00008B1C0F11E008018A08380B2E27D618B2A
:1046D000521E50434018608307F13008608BB4309D
:1046E00080003866062089F80300E17F41F0080168
:1046F000E17720E040F00100607571684A78510769
:1047000044BF40F002006075607D1EF043FFA0755D
:104710000023387CA27DC0F38001521C00F003000E
:104720001EF034FFA083A08B00F59670A0830020BC
:10473000386689F80300A17D207D61F3050007F14B
:104740008801207508700322607D48708A70A87EF9
:10475000800000F0040040F003008870EA7ED20080
:1047600002F00802104388700020C8700021C7F8CA
:104770009010A88BC0F30B00A8837168CA7D40EA33
:104780000230A8830022617D01F0FE0120460CF07A
:1047900001F9019700271DE01C20784304EB000B72
:1047A00001991C220BF164001DF054FB0BF16C000D
:1047B000052101717F1CA28B92000260FFB2DAF822
:1047C0003C104A6911686B7903EB43031944B1F853
:1047D00001204281E07D401E8742DDDB019F2046B3
:1047E00011F00EFBE07D012809D013D3032809D076
:1047F0003EBF04F164007860C6F818800AE0C7F88C
:10480000048007E004F16400786004F18001B16184
:10481000C6F8348041F6240038860021798607F1F5
:104820003C08B868618B00EB8100B86302218220EC
:1048300088F8000088F80110002194F8210088F819
:10484000031000F03F0088F802007068807D0128A6
:1048500018BF022803D100F07F00401E04E0832827
:104860000CBF06200220202188F8040088F80510DB
:104870004FF0000BDAF83C00416908686A7902EBF6
:1048800042021044B0F80110A8F80610C7F86CB046
:104890007068417811F0030F20D01EF073FEF866A7
:1048A000DAF818000078C1074CBF1F200F20DAF893
:1048B000181009788A0748BF40F02000DAF818106D
:1048C00009784A0748BF40F04000DAF81810097824
:1048D0000A0748BF40F0800089F8140089F815B035
:1048E00071685A4A887C00F0030089F81500A97E97
:1048F000890001F00401084389F81500E97EC90028
:1049000001F00801014341F0100189F815101078F9
:1049100038B199F8140000F0FE0041F0400189F828
:10492000140089F81510E07F1EF034FE84F8200092
:1049300020461EF023FEE07FC10635D5706894F84E
:1049400020204178521C88074EBFD21EE87F1218E3
:1049500098F80400C0F380010023D2B200F00300F5
:104960001EF014FE28801E22288800F59670C0F1E3
:104970001E0190FBF2F21E2000FB021129717168EA
:10498000487881074CBF00204FF49B70298840185D
:1049900028806880B86B29882A795218A63200EBE3
:1049A00082007867022002E0C7F874B0002089F81E
:1049B000170004F13000C7F8800007F18400716827
:1049C0004A78510707D504F13802026099F81500BA
:1049D00040F0200007E01E490A685168016099F81C
:1049E000150000F0DF0089F81500A17F94F8200081
:1049F00060F30501A17740F60B00A8F81000A8F8B5
:104A000012B0DAF83800008880007865DAF83800EB
:104A1000008800B1072088F81C00022088F81D00DB
:104A200094F84510A8F81E1070684178880744BFB4
:104A30000121A8F81E10009808B10BF00CFD002011
:104A4000BDE8FE8F4959002060540200880E002006
:104A50006C0F00202DE9FE4FDFF844B4DFF84474FA
:104A600005469BF8000000284CD0052872D0062887
:104A700000F07F80072818BF082800F0F5800A287A
:104A800000F0E281112802D013286FD000E2DFF895
:104A90001824107800211EF0E9FD04001EBF606D8F
:104AA000407810F00C0F2DD0216DC0064CBF886CE3
:104AB000C86E016801F108050622A91C68461DF0B0
:104AC000C9F9287800F00F0105291BD1450969466D
:104AD000C0F380101EF04EFD002813D039686846E0
:104AE0001EF044FD0646396804F138001EF03EFD14
:104AF00086420DD0606D4178C80604D440F2014072
:104B00001EF030FDCAE1607B40F002006073C5E139
:104B10003B681E204643981906226946C01D1DF0B9
:104B200099F9606D4178C806F1D5A17B0129EED1D4
:104B3000DFF878038178480605D5E90703D4206DAE
:104B400041F20A4102E0206D41F20441418041837B
:104B50004186A3E11EF0B4F90028FAD112F05AFD03
:104B6000012802D001201EF0F9FC97E114F0C3F8EF
:104B700094E1DFF83C5328681EF0ECFC0400F7D009
:104B800020790328F4D1207A00F00F01072938D1C9
:104B9000DFF8200300684169497A4A1E11425CD05F
:104BA000617A04F10A035A5C02F03F02252A54DBC1
:104BB000A17A8A09012A50D111F03F0F4DD0007C13
:104BC0001DF034F9E17ACA074CBF04F1110204F177
:104BD0000B028B0748BF921D0B0748BF921CC906EA
:104BE00048BFD21C1278520916214A43B2498B1889
:104BF0000A31EB608A5A428699898186DA89C286AF
:104C00002BE000F00F00082827D1A17A880924D1D1
:104C100019B3A8480168087C1DF008F9E17A064636
:104C200088071AD5062201F001015143601800F1EE
:104C30000C0168461DF00EF9207AC00969461EF085
:104C400099FC50B1386800F10D0168461EF07EFCF9
:104C500018B9052130461BF031FB2079032802D01A
:104C600000201BF0C9F80FE1944FB8780024FF280A
:104C70001BD01DF0DBF8804608F16C09D9F8040060
:104C80001EF068FC2A460179032901D011000CD0DE
:104C90008368197801F003008D06009003D5012484
:104CA000009818B9CDE01000FAD0F7E05D7803F174
:104CB000020A34B31AF8010B814B01902C2098F8AA
:104CC00006C01E6810FB0CFC66444FF0010E86F80F
:104CD00005E0002A1E6898F806E006F11A0C019E0D
:104CE00010FB0EFE06F01F060CF80E6098F806602A
:104CF0001B6810FB06F01844019BC3F38113C376B5
:104D00001AD10098032808F217161AD0ADB199F8F5
:104D1000000068B108F1F4000278012A0DD19BF877
:104D20000020072A04D0082A04BFC078012804D133
:104D30003D21717001203070B0E0624A1378012B80
:104D4000FAD098F8940000283CD030782D1F012824
:104D5000EDB2F1D053462A46404611F0D1F8002872
:104D60001EBF59490878002813D13D2171700120D8
:104D7000564A3070117801290AD1554C20784FF4E9
:104D8000805119F097FE20784FF480510CF0F4FA1E
:104D900084E050480168884701904FF4D07098F83B
:104DA0000620796842438818002180F8411108F5EF
:104DB0009E7001688079490812F0FAF94649019815
:104DC0000A689047009803281DD044494869007834
:104DD00082070DD598F89400002814BF281D284696
:104DE0004A691178CA0748BFC01C1AF8000000E0E1
:104DF000812089F808002A460098C3B2B878514645
:104E000005F04CFF1DE09AF800001CB11B2804BF00
:104E1000022D01251C2803D231490B5C9D4205D08F
:104E2000B070072140461EF005FC0AE09BF8000028
:104E300008285146404602D11DF0FAFF01E0FFF775
:104E40000BF9D9F8040020E0264C207830B3264D29
:104E500028681EF07FFB08B3017903291ED1017A6F
:104E60008A0611D5807AE178C0F38112914202BF9F
:104E7000217900F01F00814206D1A078002801BFEF
:104E8000607800280121A17028681EF05BFB05E016
:104E900000201AF0B1FF86201EF0E4FBBDE8F78F7A
:104EA000C80F0020680F0020D50F0020C00C002084
:104EB000BC0A0020540F0020E0070020780E0020DC
:104EC000EC570020D20F00204E590020880E002001
:104ED000C70F00202C320020303200206054020026
:104EE0001C5802004C570020AC0C00202DE9F84360
:104EF00005460C46480413D4A00024D4A0075CD473
:104F000060057ED4200500F10681200700F13B8179
:104F1000600040F1F68013F001FC24F08044F0E0E2
:104F20001DF010FBDFF81C140F6D3FB1D7E90A121A
:104F300002F0E04201F00A01891849D01DF009FF92
:104F400024F48044DDE0BB48DFF8FC73016841F0E5
:104F500080010160B878012804D1042019F01EFFF7
:104F60000020B8701DF0EEFA064604201DF080FB0C
:104F7000DFF8D8130A68904219D12A7EBAB1FA68CC
:104F8000AAB1DFF8C003806C002800F09780C168E8
:104F900040F603020988914206D0C06840F6040139
:104FA0000088884240F08A8005F1140088E040F6CD
:104FB000C4120860C5E9042284E007F03BFCDFF876
:104FC0008403006C002840F09D8024F0020498E0E7
:104FD000D7E90A65D7E90A12AA43B143C7E90A1219
:104FE0001DF0B7FEB8680028AAD056EA0500A7D081
:104FF000D7F808C03869B7F9301032462B46E04779
:105000009EE71DF09FFA05461BF072FB002800F09A
:10501000B780CC48876B002F00F0B280DFF8288380
:105020000420CB49002288F81800C6481CF028FD4F
:105030001DF0B6FEC7481DF083FEC7480068006B30
:105040008047C8F810000125042088F802501AF0A3
:1050500005FA386990F82810C8F80400490703D504
:10506000436A042100229847012014F061FDD8F81A
:10507000040045760EF034FDD8F8040081680B4634
:105080001A465B684BB11E88A6F60306072EF7D8B2
:1050900005FA06F616F0830FF2D0537B03F0F00307
:1050A000013353730023FD6853602D88A5F6030573
:1050B000012D00F28A80C8F810309FE005F1100041
:1050C00017F0F2FA30461DF044FE1AF0DFF978B11D
:1050D0002E6A28466FF4807100224FF00073B047AB
:1050E0009848806B10B113F019FB01E044F0020402
:1050F000EE692846002100224FF08063B04724F07B
:10510000005434B1974821462830BDE8F8431DF0DB
:1051100001BFBDE8F8838C4EB078012804D104208B
:1051200019F03CFE0020B0701AF0B0F938B1706888
:105130006FF4807100224FF00073056AA847306950
:1051400050B185480068006B804732697168801AE9
:10515000000BC860002030617A4D8149002228464A
:105160001CF08EFC02203076286C20B17D48022194
:1051700028301DF0CFFE13F0D1FA24F40064C0E70C
:105180001DF00EFE41E01DF0DDF905461BF0B0FA02
:10519000A0B1DFF8B48198F8000000070ED498F9A8
:1051A000000000280AD468460EF0E0FD08B100981F
:1051B00020B1DFF8B49199F8610048B31DF0F0FD1B
:1051C00013F0ACFA24F008049BE7034633F8385F89
:1051D000A5B190F8445090F8456005F0F00580F8CE
:1051E000445006F0F005013580F845500025536025
:1051F000C5634587507B00F0F0005073574800228C
:10520000C261016001201BF063FD24F4806478E733
:1052100000260127602E0FD009EB0600817A31B1FC
:105220008772407A07FA00F0C0B219F0D1FD20363B
:10523000F0E700BFCC210840032088F8180045485B
:105240001DF07EFD1DF0ACFD444F3E4D00227869FF
:1052500000207861F968F860284644491CF010FC89
:105260003D480068006B8047D8F80C10D8F8202023
:10527000411A02EB1130B0EB113F38BF4FF0FF3055
:1052800098F82410C8F8200021B1D8F80810B0EB25
:10529000C12F20D91BF02CFDB8B140F609004146C2
:1052A00021F83C0F002048804A7B02F0F0020132D6
:1052B0004A730A7B02F0F0020A734860F8613960B1
:1052C000B8F83E0010F4406FFAD00020C8F8200073
:1052D000012088F8240016F0D1FB25480021016048
:1052E000022000211BF0F4FC022019F057FD1020D1
:1052F0000DF05EFF98F8010020B9D8F80400503096
:105300001DF004FE1B48807810B90D200DF050FFF1
:1053100098F8250028B1002088F82500052019F00C
:105320003DFD002088F818001348C8F81C00022032
:10533000B5F85610B5F85420914208BF072012F076
:1053400093FB3DE7F02900209027002080330020C8
:10535000CD060200905200208C0100100010044085
:10536000C9EF000030290020D84D002081870100BE
:1053700000000460CC590200B9EA00002DE9F04FAA
:105380000F46380589B018D5DFF8F4532888FF2870
:105390000ED0C0B21CF04AFD040009D0A07916213D
:1053A0001EF0CCF820461CF037FD20460AF042FCE7
:1053B000FF20288087F40060DFE1F80504D514F0B1
:1053C000F0FD87F48070D8E1B80604D51DF048FDE3
:1053D00087F02000D1E1F8070CD51CF059FF30B15F
:1053E00000218160DFF89C03006800B1804787F0EE
:1053F0000100C2E1380704D51DF034FD87F0080034
:10540000BBE1F8060FD5002100220023069105928A
:105410000491039302910192009102201EF08AF8F8
:1054200087F01000A9E1B8070FD5002100230691ED
:1054300005910491039302910191009101223C2076
:105440001EF078F887F0020097E179074FF01E0808
:10545000CD4EDFF838A340F1D580CD4800220021A1
:105460000892079100781EF001F90446C948817836
:10547000FF2904BF00201AF0BFFCA07A1CF0D6FC64
:1054800005469AF8000095F82E91002805F5947BC2
:1054900071D0606D807A022818BF032807D1306868
:1054A0000D301EF043F810B93068C11D0791594600
:1054B00048461EF05FF800283BD0606D807C336862
:1054C000002818BF012804D1194658461EF04EF88E
:1054D00004E05A46494618461EF0FCF8FF284AD018
:1054E00008FB00F83068404406225946C01D1CF0F5
:1054F000B1FC306810F80810404400F1010B41F095
:105500000209C01D089009F0010185F82E1106223C
:10551000594605F594701CF09DFCA8791CF090FE8E
:10552000060008BF1AF068FC94F8B90086F83A0043
:1055300021E0594648461DF0F5FFE0B130685A4673
:1055400049461EF0C7F8FF2815D018FB00F8306850
:1055500040440D301DF0EAFF58B9306840440D302A
:105560001DF0E4FF002801BF30684044417F01295D
:1055700001D149F0020905F12C004B460178069152
:105580004289120905920122698C0491C088089908
:10559000029140080390CDF800B0079801900020D8
:1055A000A9791DF0C7FFD5F89C017B4988420CBF43
:1055B00000210121A8791DF0B1FF7848AB7902687C
:1055C0002C214B43134401221A73AB7904684B43DB
:1055D00023445A73AB7904684B4323449A73AB79E1
:1055E00004684B432344DA73AB79006811FB03F181
:1055F0000144002008740720A97912F05AF987F0B5
:105600000400BAE038060FD5002100230691059169
:105610000491039302910191009101223B201DF01E
:1056200089FF87F08000A8E0F8045DD55C49306808
:105630000C680D301DF07AFF002844D13068C11D80
:105640000D301DF067FF3EE0606D4178480704F1C2
:105650003E0526D5287802281EBF03286878012831
:1056600030D16978306804F138021EF033F8814691
:10567000B9F1FF0F15D0306818FB09F948440D3017
:105680001DF054FF68B930684844C11D0D301DF04D
:1056900041FF30684844C11D062204F138001CF067
:1056A000D9FB2878022818BF03280BD130680D30A9
:1056B0001DF03CFF30B93068C11D062204F13000F6
:1056C0001CF0C8FB2468002CBED13648DAF8042050
:1056D00000784FF4805117F0E5F910B18E201DF0DD
:1056E00015FF87F4805048E0B80505D51DF054FA41
:1056F0002D4901200860FEE7780504D51DF075FCF2
:1057000087F4806039E0780405D581201DF0FEFE25
:1057100087F4804031E0B9042ED5244C206810B1C4
:1057200000201AF069FB4FF0FF3020600020204C71
:1057300011F03CF8216851F8202F684690471D4928
:105740004A6B086BC96A24681B4B01920090ADF844
:10575000101002936B46194A1948016819480392C0
:10576000194A07922568194AA8471949086003F0A1
:105770000DFF87F4005000E0002009B0BDE8F08F75
:10578000C4330020480F0020680F0020880E00203E
:10579000D70F0020780E00204DE50110EC570020B7
:1057A0004C0F0020C70F00207C052043380F00203D
:1057B000200F0020242700207122020081220200F5
:1057C000F8570020804800201EFB0080EC0A0020D3
:1057D0001C0F00202DE9F84FDFF82854A978002489
:1057E000FF2904BF00201AF007FBA8781CF01EFB5D
:1057F000054605F1680605F5C9773168086805F1C1
:10580000900808B1EC8311E0B07B002804BFB07EA3
:1058100000280BD198F80010002904BF3878002820
:1058200004D1287F012804BF688CE8832989E88B8C
:105830004118491C698128461DF064FE01281EBFDD
:10584000DFF8C4030178012903D12989EC83491CBD
:1058500069814FF6FF79B07E01280DD1B28B69893D
:1058600028891DF04BFE38B1298968894A1C93B2FA
:1058700098422FD0B08B23E098F8000001280FD178
:10588000B8F80220698928891DF038FE40B12989BD
:1058900068894A1C93B298421CD0B8F802000FE005
:1058A0003878012816D17A88698928891DF026FE62
:1058B00080B1298968894A1C93B298420AD07888B5
:1058C00092B2904206D04844688180B21DF012FE28
:1058D0004844E883387801280FD128897988401C0A
:1058E00080B2884209DB7C793C7102203870234603
:1058F000A979224600200BF0D9FC05F59A710879A8
:1059000020B128890021401CE9836881B07E0128EC
:1059100013D12989B08B4B1C9BB298420DD1688161
:105920001DF0E8FD05F12E01B6F820808A8802FB03
:105930000088284610F0A4FA03E005F12E00B0F824
:105940000480E88BB14B411C01FB08F82968CA6848
:1059500040F6C41909FB0822CA60AD49DA7BD307B7
:1059600002D56B8A00220BE00A88521C93B2012BED
:1059700003BF05F59A7CBCF8063003F2DC536B8A52
:1059800003FB08F34FF4C87CB3FBFCF35B1C6B61B7
:105990000A8085F82000C5F818804FF01C0BDFF84E
:1059A00074A2AB79DAF8000000F108021BFB03F3E4
:1059B000D1582A68116100F10801AB79D268686991
:1059C0001BFB03F3121ACA50DAF80000AB7900F19E
:1059D00008021BFB03F3D1582A68916000F10C0206
:1059E000A9791BFB01F10C30535C03F0F00343F089
:1059F00002034354DAF80010AB798A1C1BFB03F353
:105A00000021D152387908B91AF0F6F9DAF8000015
:105A1000AA7900F1100138791BFB02F24008885482
:105A2000A879DAF800101BFB00F00844002141744B
:105A30003879042814D1A879DAF800101BFB00F09B
:105A400001F110021031135C3A7A43EA82030B54DD
:105A5000AA79DAF800001BFB02F2024420205074FD
:105A6000DAF80010A87901F112021BFB00F0002106
:105A700011526949A8790A6802F114034FEA401CDF
:105A8000143253F80C00AB79D5F814C05B0100EB6D
:105A90004C00D050B07E02280DD10A68AE7902F1D8
:105AA0001403760114329859AB7995F82E605B0196
:105AB00019FB0600D05005F12E025448C37BD807CD
:105AC0005ED5DAF80000AE7900F108041BFB06F69B
:105AD0000830A359AC791BFB04F4A3F5A863035168
