:10000000003C0220ADE2010035F3010035F30100B0
:1000100035F3010035F3010035F3010035F301003C
:1000200035F3010035F3010035F3010035F301002C
:0C00300035F3010035F30100BDD20000E3
:1000400038B586B004468DF805104FF6FF720120D2
:10005000ADF80220090ADFF8B85AADF80000022313
:100060008DF806108DF8043069462A78204622F073
:10007000C3FB162803D12978204622F0B9FB07B02C
:1000800030BD3EB504000D461ED0DFF8880A00687A
:10009000224622F0A9FBFF2815D000200090002363
:1000A00001AA2946204611F077FF60B99DF80400A7
:1000B00000F06EF9C00606D59DF8040000F068F95E
:1000C00010F0040000D001203EBDFEB516461524F8
:1000D0004FF6FF7290420D4615D100208DF80400B6
:1000E000DFF82C7A9DF80400F97988421AD232465A
:1000F000294600F03EF800B100249DF80400401CA1
:100100008DF80400EEE722F06BFB50B100F099FB94
:1001100040B99DF804003246294600F02AF8002430
:1001200000E014242046FEBD7CB50D4604460621A1
:100130004C43164620346A46082120461FF0AEF98B
:10014000A8B900F076F890B99DF80700002E14BF0A
:10015000054320EA0505E9B2814206D08DF8075033
:100160006A46082120461FF0ADF9012076BD002027
:1001700076BD2DE9FC4106463446062388461546E1
:100180005C436A46082104F120001FF087F900282B
:100190004CD100F04EF8002848D100F024FA0400B9
:1001A00002D100F018FA41E0397AE036224689009F
:1001B00030461FF073F9002834D1204600F051F882
:1001C0005FEA08000ED13A7A9206120E002120460C
:1001D00020F0B2F830BB3A7A92000021204620F09D
:1001E00007FF16E0214600F029F858B9280004D08E
:1001F0002146002000F022F810B900F00CFC15E0B8
:10020000A0F800808178A9420CD085700DB900213A
:100210000180204600F025F8397A224689003046D0
:100220001FF050F900F0F7FB012000E00020BDE8CE
:10023000F6810622FF21684620F07EB870B5DFF80F
:10024000D0381D7A002200E0521CD4B2AC4206D253
:1002500031F824608642F7D101EB840070BD0020A4
:1002600070BD10B50021DFF8A8280AE030F8213071
:10027000DB4320F8213000EB8103491C9C78E443E8
:100280009C70137A9942F1DB10BD2DE9FE4FDFF827
:1002900080480646207A0F4691469A46800021F013
:1002A000D7F85FEA000803D100F095F90A206DE065
:1002B0000C9D02974FF0060B37461BFB07FB029A7B
:1002C00008210BF120001FF0FDF88DF804003046E6
:1002D00000F099F8227A00F079F99DF80400009076
:1002E0004246217A890006F1E0001FF0EBF8009EFB
:1002F00002990643206A082200EBC70020F082FE24
:10030000F5B110220021284620F016F8C0B9029954
:10031000887900232A4600F0010022F05DFA0028C7
:100320001CBF9DF93C00002803D0DFF8EC1701202A
:1003300008702A4610210BF123001FF0C3F8064372
:100340005FEA090205D01C210BF121001FF0BAF869
:1003500006435FEA0A0205D01C210BF122001FF0C0
:10036000B1F806430D9A4AB110210BF124001FF099
:10037000A9F806430EAA00F031F90643A07D08B1A2
:1003800000F094FA404621F06BF8F0B2BDE8FE8F21
:10039000E0B5062358436A46082120301FF07EF856
:1003A00010B99DF807000EBD00200EBDDFF86007F4
:1003B0000078082110F004BA38B50025DFF850475E
:1003C00018E0206A06236B4300EBC50220330821A6
:1003D00098B21FF063F858B1206A0622FF2100EBA3
:1003E000C50020F005FE206A00EBC5010022CA719D
:1003F0006D1CEDB2E1798D42E3DBA07D10B1BDE86B
:10040000314053E231BDF8B5DFF80417DFF80C379F
:10041000C9791E680C460A4600E02A46D5B23DB1AD
:10042000551ED2B2324412F8017C8742F5D12C46D7
:10043000E4B220464D1E07E01718165C7F7817546B
:100440001A680244401C5670A8421A68F4DBAC4299
:1004500004DABDE8F84005201FF034B8F1BD70B5EE
:100460000024DFF8AC5600E0641CE879E3B2834274
:100470000BD22B6AE6B20622FF2103EBC6001FF067
:100480005BFF0028F0D0E0B270BDDFF89426117851
:1004900039B1DFF8880601680C78204600F013F8BF
:1004A000204670BD38B500200024DFF8645603E014
:1004B000E0B200F008F8641CEA79E1B2914201D29E
:1004C0000100F5D032BD2DE9F84F4FF0060B1BFBB4
:1004D00000FB8EB081460BF1200501AA08212846B9
:1004E0001EF0DCFF002868D10622FF2101A81FF0C2
:1004F00023FF002861D100F076F85FEA000803D1FD
:1005000000F069F80A205AE01C22FF2103A820F01D
:100510006FFD3A7A00F05AF80BF123060AAA10216F
:1005200030461EF0BBFF60B91022FF210AA81FF061
:1005300003FF30B99DF80A0001A900F0010022F084
:1005400047F9082200F03EF801AA082128461EF0CB
:10055000B9FF054603AA1C210BF121001EF0B2FFD2
:100560008DF8000003AA1C210BF122001EF0AAFF47
:10057000044603AA102130461EF0A4FF064603AA33
:1005800010210BF124001EF09DFF824603AA00F00B
:1005900025F89DF800100D43254335434AEA05052B
:1005A000397A05434246890009F1E0001EF08AFFCE
:1005B0000543404620F054FF00E0002528460FB0D8
:1005C000BDE8F08FFF2101A820F012BD9200FF21AD
:1005D000404620F00DBD04201EF0D6BC04210BF1D6
:1005E00025001EF06FBFDFF82875387A800020F0F4
:1005F0002FBF2DE9F84187B0FF208DF80000DFF80C
:100600001055E87920F024FF040003D1FFF7E3FF41
:100610000A2030E01022FF2103A820F0E9FCEA794B
:10062000FF21204620F0E4FC0622FFF7CBFF03AABF
:10063000102102201EF046FF064603AA10210320C7
:100640001EF040FF06436A46012104201EF03AFFD7
:100650000746E979224605201EF034FF054601AA27
:10066000062106201EF02EFF804600F0D4F93E43FE
:100670002E4348EA060008B0BDE8F081DFF8901488
:10068000408809781EF0CEBEF0B5A9B006460D46EA
:10069000144622F0A5F808B91420A6E0A4220021EF
:1006A000684620F0A5FCADF80060DFF86464F078DF
:1006B000F17B279A8DF804005208307C8DF8A00059
:1006C0004B0801F0010040EA420222F0020203F06E
:1006D000010342EA4302080922F4807200F001009B
:1006E00042EA0022480922F4007200F0010042EAC6
:1006F0004022880922F4806200F0010042EA802250
:10070000890822F0040201F00101707C42EA8102B2
:10071000279202280CBF012000200DF126077874D3
:1007200022F052F8412807DB707C00B108209DF8C8
:10073000991008438DF89900F07CB8B10121B97483
:10074000202206F188010DF1390020F05BFC202207
:1007500006F1A8010DF1590020F054FC202206F109
:10076000C8010DF1790020F04DFC00E0B874707BF9
:100770008DF8050090B1DFF8AC73102207F110017D
:100780000DF1060020F03EFC9DF89900082805D1E7
:10079000102239460DF1160020F034FC307B8DF824
:1007A000260030B11022DFF880130DF1270020F071
:1007B00029FC307948B1022D18BF032D03D12798A9
:1007C00040F002002790012100E000219DF89900EF
:1007D0000143B0788DF8991000B1042001438DF8E1
:1007E00099106846214621F0EBFF29B0F0BD2DE9B4
:1007F000FC41154615244FF6FF72904288460ED1F3
:100800000027DFF80C63F179F8B2884216D22A4645
:100810004146FFF789FC00B100247F1CF3E721F07B
:10082000DFFF50B100F00DF840B99DF804002A46F2
:100830004146FFF779FC002400E014242046BDE87F
:10084000F681002100910023417901AA01F0010104
:10085000801D11F0A1BB70B504460D46062045432E
:10086000082B88B0164603D1300758BF223500D573
:1008700021351C220021FFF7A6FE01AA1C212846D3
:100880001EF00CFE80B99DF81E00C01F0A280BD276
:100890009DF830000090F20801AB02F0010206F072
:1008A0000101204620F080FE08B070BD38B521F06F
:1008B00083FF0024964D0FE0286A0622FF2100EBFB
:1008C000C4001FF039FD28B9286A00EBC4018879FB
:1008D00021F06EFF641CE4B2E8798442ECDB31BDA8
:1008E000F0B5924D0646686885B04FF6FF7438B98A
:1008F000009502238E4A2146012021F055FF6860B1
:10090000696819B30222FF20029200230390019329
:100910000DF112072A88009704AB304607F0F8FE65
:1009200060B99DF810009DF8111000EB0122100035
:1009300004D0686841893046FFF7C7FB2A88686899
:100940000023214621F02CFF686008B9012000E057
:10095000002005B0F0BD3EB50C46002501460095CF
:10096000002301AA204611F017FB38B99DF80400B6
:10097000FFF70EFDC00601D401203EBD00203EBDA4
:100980002DE9F0416B4F3C6806468846154603E06A
:100990002089B04224D02468002CF9D10C2020F00A
:1009A00057FD040019D0268184F80A8000202060B9
:1009B000E07245B1082128461FF00EFF606018B9AB
:1009C00000F029F80AE06060396811B93C6004E081
:1009D000014608680028FBD10C600CB9152018E00E
:1009E00021F0DAFE08B1002013E00120E0722A466F
:1009F00041463046FFF748FE04464548C069002896
:100A00001CBF4368002B03D00022002130469847CA
:100A10002046BDE8F081204620F022BD38B50546CD
:100A20004448046803E02089A84204D02468002CCC
:100A3000F9D1012032BDE07A012807D100F05CF83D
:100A400020B13348007804210FF0BAFEE17A491C46
:100A5000E1722846C9B200F002F8002032BD38B574
:100A6000022904462A4D02D003290DD01EE042F689
:100A7000C921FFF7E5FA02001CBFE869002818D079
:100A80004368B3B105210CE042F6A621FFF7D8FA7E
:100A900001001CBFE96900290BD04B684BB102462D
:100AA0000421204601B0BDE830401847BDE832407F
:100AB00000E031BD10B51F4A1468002101E0214655
:100AC00024686CB123898342F9D1206800290CBFC6
:100AD00010600860606808B120F0C2FCFFF79BFF5F
:100AE000002010BD024604201249096819B10B8983
:100AF0009342FAD1C87A70470E48006828B100685E
:100B000018B1C17A0029FAD170470020704700005F
:100B100008220020680F00205B5900202858002080
:100B20005A59002054550020845500209857002021
:100B3000344B02002C58002038B584B0044621F014
:100B40004FFE0622417901F001018DF80E10811D42
:100B500002A820F057FA0020009000239DF80E1004
:100B600001AA02A811F018FA9DF80400FFF7ABFCE7
:100B700005460521204621F00BFE284605B030BD74
:100B80002DE9F04F8FB013F023FD20F04BF9DFF883
:100B9000048A08F10B04204620F0F0FE204620F0E5
:100BA00059FFDFF8F4B9584620F0CAFBC8F80C002A
:100BB000584620F0DDFE08F1090020F039FF21F051
:100BC00019F9DFF8D819086021F0F4F8DFF8D049F6
:100BD00008F10506A060304620F0E2FE21F0FAF8A8
:100BE000DFF8C019086008F1060020F045FF20F08A
:100BF00077FEE060A01C04F1140117F0D1FF04F1AE
:100C0000240020F0AEFCDFF8A019A0614FF0000A2C
:100C100004F14C0040F2EE220023CDE900A805903B
:100C200018F048FCDFF88409DFF88419DFF88479CC
:100C30000022152300901020B847DFF87C191020FF
:100C400000220223B8470FF06BF8DFF8701910206C
:100C50000122B847DFF8681910204FF0FF324FF03B
:100C6000FF39B8471EF03AFA1DF032FC1EF0E8FCDE
:100C700019F0C6FC1FF0C2FC21F0C0F8DFF84419DF
:100C8000086013F0C5FE17F0F7F80FF065FE08F1E5
:100C900004053146284620F05BF96060284631465D
:100CA00020F04CF9284620F081FE08F1100020F0D9
:100CB00069F808F1140020F0BDFC08F1180020F0DC
:100CC000D1FCA178DFF800695020B047DFF8FC18AC
:100CD00002461020B847A1785020B047DFF8F0183E
:100CE00002461020B847DFF8EC181020FB2240F62F
:100CF0004803B847DFF8E0181020B8472546A17828
:100D0000502025F8349FC5E903AAC5F814A0B047C0
:100D10000346DFF8C80802210422CDE90010DFF8FD
:100D2000C0181020B8472846182121F04BF8DFF8EA
:100D3000B418102080228023A5F80090CDF800B0D0
:100D4000B84788F80300DBF86800D949884213D017
:100D5000DBF86C00D74988420ED01FF053F9D8F861
:100D60000C00DFF884188022802320F0EBFF0121A3
:100D700088F8030088F80710DFF868181020802230
:100D80008023CDF800B014F0C7FA88F8030014F0FF
:100D9000E9FF60709BF8700020F0CCFDDBF87C0070
:100DA00020F064FE1BF0DAFC1BF038FDA0688078B0
:100DB00008B913F0D9FC09F073F813F017F8A1681B
:100DC0009BF878206078097813F012FDA06801780C
:100DD00039B9817829B9417819B9C17809B9007947
:100DE00088B1002000251FF0FBFBE068017851B1BD
:100DF0000570DFF8D00701210F22006800688068C5
:100E000020611FF009FC012088F80B0020F04EFC47
:100E100020B19620012117F0D1FC06E04FF4C870F4
:100E2000002117F0CBFC21F061F8DFF8E85708AE9D
:100E30000DF139090DF13B0A98F8080000214FF037
:100E400040424FF0FF33013088F8080060690EF02F
:100E50003BFD834698F80400072822D8DFE800F01D
:100E6000042121212113041360680078C8B198F887
:100E70000500B0B94FF4FA602278DFF87417012347
:100E80000090102008E060680078022809D12278DC
:100E9000DFF858171020132314F03EFA6068002181
:100EA0000170BBF1000F00F0E78000200DF11F0181
:100EB000069007A806AA1CF004FF002840F0D9807D
:100EC000BDF81C00102840F0CF80A0789DF81F10BE
:100ED000814240F0C980069F4FF6FF7039888142F9
:100EE00000F0C380080AC9B2912900F08080B029BF
:100EF00000F0B580D02940F0B880B978072900F219
:100F00000082DFE811F00800B100B100B100B100CB
:100F10002702560292020021002888F8041040F0AF
:100F2000A3800020F97A3246ADF82300B8798DF815
:100F30002000B7F807008DF827100821ADF8210030
:100F4000B7F80900ADF82500002016F0DDF8DFF84D
:100F5000B416DFF8B426DFF8B4361020009414F08D
:100F6000DBF9000640F01483102022782946002384
:100F70002F460090DFF898060190102014F0CCF96D
:100F8000000640F00583192022783946012300909D
:100F9000DFF884060190102014F0BEF9000640F03E
:100FA000F7822278DFF874161020922314F0B4F937
:100FB0004FF4FA602278DFF83816012320F0C2FEE1
:100FC000000640F0E5826068002101701DF0F8FD28
:100FD00008F1010001214FF47A720023CDE90010DD
:100FE000DFF83C06DFF8C01518F064FA3CE03E2854
:100FF00000F099810F2800F09C81102800F0A58155
:101000000E2831D1B88841F2054188422CD1B96807
:10101000087848BBB1F80100A28E824224D1C97879
:101020007F2921D094F84520531C224484F8453070
:1010300082F84010052294F84510B1FBF2F202EB61
:101040008202891A002284F845100021052900F047
:1010500015826318013193F940301A44F6E7397963
:1010600007F1080021F090FB069F17B1384620F0E9
:10107000FEFE5FEA4B001FD4DFF820050068007811
:1010800000287FF4D9AE98F8040040F00200072849
:1010900006D12278DFF854151020132314F03CF900
:1010A000DFF800050068007800283FF4C5AE61E273
:1010B00015CD5B07B168DE3AA06920F0F5FC002889
:1010C000DAD1A0691FF0DAFC0028F5D007460078D5
:1010D0000338062800F20D81DFE810F007000B014D
:1010E000EF001800F700FA00DC00786801684A1E7B
:1010F000072A00F2F3800121DFE812F0F600F50084
:10110000F800F600F800F800F800F500042020F0E0
:10111000D5FE10B9042020F039FE052020F0CEFEC7
:1011200010B9052020F032FE022020F0C1FE10B9D7
:10113000022020F01FFE032020F0BAFE10B9032089
:1011400020F018FE98F80A00082840F09D80002042
:1011500020F0AEFE10B9002020F00CFE012020F09F
:10116000A7FE10B9012020F005FE0420494619F021
:1011700099FF20B9042002214A460FF06BFF052099
:10118000314619F08FFF20B90520042132460FF0B7
:1011900061FF0620314619F085FF20B906200421A1
:1011A00032460FF057FF002020F085FE10B90020D6
:1011B00020F0D4FD012049461BF02EFD20B901206E
:1011C00002214A4612F018F8022020F074FE10B9ED
:1011D000022020F0C3FD032020F06DFE10B9032093
:1011E00020F0BCFD042020F066FE10B9042020F0A1
:1011F000B5FD002020F062FE10B9002020F0C6FDF1
:101200000220514615F048F910B9022020F0C2FD25
:101210000320514615F040F910B9032020F0BAFD23
:10122000062020F042FE10B9062020F067FD0720BE
:1012300020F03BFE10B9072020F060FD082020F0D0
:1012400034FE10B9082020F059FD092020F02DFEB1
:1012500010B9092020F052FD0A2020F026FE10B916
:101260000A2020F04BFD0B2020F028FE10B90B20A7
:1012700020F08CFD0C20514615F00EF910B90C2011
:1012800020F088FD98F80A00082824BF002088F87C
:101290000A002EE07A68204630F8341F5288891AF6
:1012A00018BF012141EA410100EBC100C07D00B33C
:1012B000DE49102014F030F81BE07868DA4900238A
:1012C000C288D84820F03EFD13E01DF079FC10E004
:1012D0007868B0F8010015F0C5FC0EE0B1F1004FE0
:1012E00007D0102902D1002188F80510406820F0AD
:1012F00032FE786808B120F02EFE384620F02BFE32
:10130000DAE611297FF4B0AE112088F80400B87B2A
:101310008DF82A00B888ADF820007889002800F000
:101320009C800020A4E0B8780C287FF49DAE0C20AF
:1013300007E0B88842F2320188427FF495AE42F26B
:101340003200394613F0AAFF8EE6082000211FF074
:101350000FFD89E60520A94920F05AFC797800297B
:1013600040F0B2800490A08E4FF6FF71884240F0AA
:10137000A7807F890320A78620F0F3FD0028A063C3
:1013800000F09B8008210170A06BA0F80170242060
:1013900020F0E7FDA16B0028E06300F08B800122C4
:1013A0000023CDE90021804941F2707218F082F8E3
:1013B00083E00620914920F02BFC0146BF88A08ED7
:1013C000B84229D1E06B039178B1049020F03DFE42
:1013D00010B1049820F03DFE049820F065FE0498BA
:1013E00020F0B9FDA06B20F0B6FD38461DF052FF8D
:1013F00038461CF0D5FD4FF6FF700399023880B2D5
:10140000874202D0A08EB84206D14FF6FF70A08668
:101410000020C4E91000A064080602D1059820F05D
:1014200018FE002088F80A001EE60720714933469E
:1014300088F804001020BA8813F06EFF04F11C0035
:101440001EF086FB00283FF40FAE0746008915F01A
:1014500009FC384620F07FFD06E60020ADF82600A6
:10146000D7F80600CDF82200B889ADF82800012091
:1014700061498DF82B001020324637E011B2052269
:1014800091FBF2F194F84720002A84F846107FF48B
:10149000EBADC9B24AB212F11E0F2ADB94F8481024
:1014A00041F0020102293FF4DFAD00234FF0020EAC
:1014B00002213AE0084620F04EFD012084F8480061
:1014C000059820F0C4FD0498227800060CD198F805
:1014D000020048B94FF4FA604549012320F032FC7C
:1014E000606800210170BFE54549102013F014FF2A
:1014F000BAE5D82909D394F848100229FFF4B4AD0D
:1015000000234FF0010E01210FE0CE2909D394F8FA
:10151000481000293FF4A8AD012304214FF0060E26
:1015200003E04FF0020E0421022394F849C094F81E
:101530004A70ACEB0E02022F4FF00007B2FA82F2B3
:1015400038BF012752093A4208BFF4453FF48CAD39
:101550000A4677461BF032FC0120394684F84700E2
:1015600094F84900B8421CBF002084F84A0084F86F
:10157000491079E508481C498022802320F0E2FBCD
:10158000012188F8030088F806100FB0BDE8F08F3D
:101590001FF0E8FCFC2E0020BC240020E8580020AE
:1015A000B4260020E4580020C9A70100B42F002071
:1015B000F97A0100195301001DC90100250102003B
:1015C0007DD90100EC5800208DEA0100D96C021091
:1015D0002D6D02100D520210397F0110683300206A
:1015E000CDBC00009DF40100C5F40100A1F901107B
:1015F000ED740110F9DC0110D9570110B50F02008C
:101600006502021099010110E1EF0100342F002062
:101610007032002015ED0000502F00201DEF01104A
:101620008854002040E2010045E201000D2B021029
:101630002DE9F84F2DED141BB0EE402A5BEC119B09
:10164000F0EE602A2BF000409FED870B50EA090175
:101650002BD0874B57EC126B5D1C0EB9AF4224D0D8
:10166000844927F000448C4209D80EB18C4206D040
:10167000884204D8B9F1000F1CD088421AD19FEDDE
:101680007E0B3046394655EC104B20F07BFB06466E
:101690000F464846594620F075FB02460B46304639
:1016A000394608F084F941EC100BBDEC141B01B075
:1016B000BDE8F08FB7F1FF3F02DD4FF0000A04E014
:1016C0006F4A90426BD94FF0020AB9F1000F00F057
:1016D000EA839FED690BB8465CEC10EB4FEADC72D5
:1016E00062F3DF782EB34FF0FF3202EBD7725AEA83
:1016F00002034DD0AAF101031A430FF60C1208BFE2
:10170000083292ED008B5F4A904261D301F144416F
:10171000884240F28280AC4280F0998020F04EFBFB
:10172000222101600FF67010BBF1000F48BF083096
:1017300097E08C4204D0544A944201D0002CD2D17C
:101740009FED490B3246434620F028FBBBF1000FCA
:101750005CBF41463046B7F1FF3F41EC100BA4DCC3
:101760004A4A224402F5200252EA0A0210D08DEDC4
:101770000C0BBAF1010F9DF8372082F080028DF832
:1017800037200C9A18BF02460D9818BF0846D0E3C0
:1017900020F014FB21219FED3E0B016085E798426C
:1017A0007FF68BAF9C463C4B020D984248D340F2EB
:1017B00033439B1A29FA03F202FA03F3994563466D
:1017C00006BF02F00102C2F1020A4FF0000A7CE7F4
:1017D0009FED330B30464146CDE900EC20F0AAFAEC
:1017E000314A324B3532B4F5801F3ABF4FF6CC3216
:1017F000CFF6FF722146B4F5801F02EB21526FF342
:101800001F5128BF304641EA0508994256D3284B5C
:1018100099424FD20292012152E01548844280F051
:1018200075827546644620F0C9FA2221BBF1FF3F5C
:10183000016040F3DD8151EC180B2A46234660E33A
:10184000B9F1000F00F01F834FF0000A41E720F0CC
:10185000B5FA222101600FF64000BBF1000FC8BFAE
:10186000083090ED000B20E7000000000000F03F82
:10187000FFFFEF3F0000F07F0000000000000000CD
:10188000FFFF3F430100E0410000F03F000070BF58
:10189000000000000000F87F0000404100BF00BFD2
:1018A0000000000000004043CCFBFFFF8F980300C6
:1018B0007AB60B00F44B013241EA03080021029290
:1018C000DFF8E8270991074602EBC102414692ED95
:1018D000000B55EC106B32462B460396049008F033
:1018E00061F804468A46304629463A46434608F09F
:1018F0005EF81FED230B02460B4620F04FFA0790CF
:1019000002460B460691204651460CF0C7FC089053
:101910004FF000500F460022099940EA580000EBB2
:101920008140394600F50026002033460CF0B6FC15
:101930001FF022FF039A04468A46002031462B46B8
:1019400008F030F8024604980B46414608F02AF8A1
:1019500002460B46002039460CF0A0FC1FF00CFF9D
:1019600002460B46DDE906100CF098FC0790069144
:101970000D460446394600223B46089E304608F094
:1019800016F802460B46204629460CF087FC804696
:101990008A463046394632463B4605970CF07EFC77
:1019A0009FEDBB0B06460F4620F0C4F99FEDBA0B26
:1019B00020F0A0F91FF0BCFE9FEDB90B20F09AF9C2
:1019C0001FF0B6FE9FEDB80B20F094F91FF0B0FEAB
:1019D0009FEDB70B20F08EF91FF0AAFE9FEDB60B1E
:1019E00020F088F905460C461FF0D2FE2A46234611
:1019F0000CF054FC02460B464046514607F0D7FF18
:101A0000059D80460C460020002229462B460CF0FE
:101A100045FC9FEDAB0B07460E4620F06BF94246A6
:101A2000234607F0C4FF9FEDA80B00208A4620F054
:101A300061F93A46334607F0B5FF02460B46404689
:101A4000214607F0AFFF024608980B4629460CF0E6
:101A500025FC04460E46DDE90610002253460CF034
:101A60001DFC2246334607F0A2FF07460E46002023
:101A70002946002253460CF011FC3A4633460446F0
:101A80000D4607F094FF002022462B468A4607F0B9
:101A900089FF02460B463846314607F083FF9FED2B
:101AA0008C0B20F047F99FED8C0B04460D4600206F
:101AB000514620F03FF920F065F90246DFF8F005C5
:101AC000099C0B4600EBC40090ED000B51EC100B91
:101AD00007F06DFF9FED820B089005460E460791BB
:101AE0000020514620F026F92A463346CDE905105C
:101AF00007F05DFF0246DFF8BC050B4600EBC400B3
:101B000090ED000B56EC107B3846314607F04FFF46
:101B10000546029888461CF031FF04468A4628464E
:101B200041462246534607F042FF002022465346D4
:101B300020F069F83A46334607F034FFDDE9053214
:101B400007F030FF02460B46DDE9071007F02AFFD9
:101B500041EC1A0B4846594600225B4607F022FF2B
:101B600004460D4651EC1A0B4A465B460CF096FBB8
:101B700057EC196B804689462046294632463B463B
:101B80000CF08CFB42464B4607F011FF814688461D
:101B90003046394600225B460CF080FB07460D4676
:101BA00041EC190B484641463A462B4607F0FFFEEA
:101BB00006464D480C4600F5200081421BDD4B488F
:101BC0002044304310D19FED4A0B4846414620F057
:101BD00091F882468B461FF0D5FD02460B465046D3
:101BE000594616F00FF9D8B120F0E8F8222101602B
:101BF0009FED410B42E142484249204088420FD3C9
:101C000041482044304340F08F801FF0BBFD024626
:101C10000B464846414616F0E1F8002840F0848023
:101C2000194924F00040884240F28780F04940F290
:101C3000134301EB10504FF4801121FA00F0012101
:101C40002044024661F31F52C0F30A515B1AA1F20D
:101C5000FF31DA40002C48BF52420992234A02F178
:101C6000814242FA01F1002201EA00033846294686
:101C700007F098FE024641EC190B0B4648464146D8
:101C800007F095FE0C465AE00000E03F00BF00BFA1
:101C9000EF4E454A287ECA3F65DBC9934A86CD3F51
:101CA00001411DA96074D13F4D268F515555D53F37
:101CB000FFAB6FDBB66DDB3F033333333333E33FCF
:101CC000000000000000084000000000000008C004
:101CD000FD033ADC09C7EE3FF5015B14E02F3EBE81
:101CE000000000E009C7EE3FFFFFEF3F000070BFBC
:101CF000FE822B654715973C000000000000F07F36
:101D000000FCFF7F00CC904000346F3FAC42CDE937
:101D100000EC40F2248120F051F82221BBF1010FA8
:101D20000160BFF665AF03E020F048F822210160B2
:101D3000DDE9002351EC180BE3E00020099053EC9F
:101D4000192B0020214607F02DFE02460B4648467F
:101D5000414607F027FE9FEDBE0B05460E460020CC
:101D600021461FF0E7FF9FEDBC0B0746884628463B
:101D700031461FF0DFFF3A46434607F018FE9FED5D
:101D8000B80B089005460E460791002021461FF02B
:101D9000D1FF2A4633468346069107F008FE0246E5
:101DA0000B46824689460CF079FA9FEDAF0B04464C
:101DB00088461FF0BFFF9FEDAE0B1FF09BFF1FF08B
:101DC000C9FC9FEDAD0B1FF095FF1FF0C3FC9FED0D
:101DD000AC0B1FF08FFF1FF0BDFC9FEDAB0B1FF096
:101DE00089FF1FF0B7FC1FF0C1FC04460F465046A8
:101DF000494622463B460CF051FA9FEDA50B05469D
:101E00000E46204639461FF075FF02460B4628460F
:101E100031460AF035F9069B04460F4650464946BE
:101E20005A4607F0BFFD02460B46DDE9071007F0F2
:101E3000B9FD05460E46504649462A4633460CF043
:101E40002DFA2A46334607F0B2FD02460B462046DD
:101E5000394607F0A7FD1FF089FC9FED670B1FF0C7
:101E600049FF099A41EC100B01EB0251B1F5801FBB
:101E7000AEBF41EC100B10460BF07AFD51EC180B85
:101E800053EC102B3DE040F213439B1A20FA03F26F
:101E900002FA03F39842634612BF4FF0000A02F0C1
:101EA0000102C2F1020A884215D18348204400F59C
:101EB000200030433FF4F9AB9C4226D99FED500BF4
:101EC000BBF1FF3F50EC101BC4BF5846494640ECE5
:101ED000101BFFF7EABBA8420CD19FED470B32461F
:101EE0003B461FF05BFFBBF1000F5CBF394630463D
:101EF000FFF7D9BBBBF1804F1FD130463946324680
:101F00003B460CF0CBF9FFF7CEBB8DED0A1B9FEDE6
:101F10003C0BBBF1000F9DF82F000A9A80F0800067
:101F20008DF82F0051EC100B58BF02460B9858BF8C
:101F3000084640EC102BFFF7B8BB002F3FF5C9ABAC
:101F4000594A93457FF4C5ABB0EE420AF0EE620AFF
:101F5000BDEC141B01B0BDE8F04F09F0C1B89FED16
:101F60002E0B304641461FF0C5FE9FED2D0B064659
:101F70000F461FF0DFFE9FED2C0B1FF0BBFE1FF086
:101F8000D7FB9FED2B0B02460B4651EC100B07F0D5
:101F900009FD04460D461FF0FBFB22462B460CF0C4
:101FA0007DF99FED250B1FF0C5FE9FED250B044627
:101FB0000D46304639461FF0BDFE1FF0E3FE9FED93
:101FC000220B80460C46304639461FF0B3FE42468F
:101FD000234605460E4607F0EAFC00202A46334613
:101FE0001FF011FE02460B4640462146AEE500BFFB
:101FF00002FCFFFF00BF00BF000000000000F03F38
:102000000000000000000000000000000000F03FA1
:10201000000000000000F0BF000000000000F0BF62
:10202000000000000000D0BF555555555555D53F0F
:10203000000000000000E03FFE822B654715F7BF5F
:1020400044DF5DF80BAE543E000000604715F73FDB
:10205000396CA80C615C20BEEF39FAFE422EE63FD7
:1020600000000000432EE63FD0A4BE726937663EF2
:10207000F16BD2C541BDBBBE2CDE25AF6A56113F08
:1020800093BDBE166CC166BF3E5555555555C53FEF
:1020900000000000000000C0000000000000000080
:1020A000000000000000F07F0000E03FD04402008C
:1020B000E0440200F0440200000070BF2DE9F84F38
:1020C00001201BF03BFD012816D1DFF8E8663078CF
:1020D000002120F055FB040004BF00201CF054FF39
:1020E00000202072201D10F0E7FF05F0B9F8050070
:1020F00003D1812020F040FB58E3012068710720C4
:1021000014F0A1FCDFF8B096DFF8B02699F80100D2
:10211000401C89F80100A879A07240203178117024
:102120000FF018F92860616D4A78206DD10620D52E
:10213000816C0A681179032908D0816C08680079DC
:1021400003280CBF012000201CF01EFF206D816CB5
:102150000A6890F86C0002F1080701281CBF0020F3
:102160001CF012FF216D486F296800F5B060C8604F
:102170004EE0C16E0A681179032908D0C16E086863
:10218000007903280CBF012000201CF0FDFE206D0B
:10219000C16E0A6890F8980002F1080701281CBF78
:1021A00000201CF0F1FE216DB5F87431D1F8A000CB
:1021B0002968DFF80C26C86097F82660DFF8040667
:1021C000032E1FD8DFE806F002061014CA6802F5D5
:1021D000B06202E0CA6802F53472CA6005F59A720C
:1021E00001881187038811E0C86800F5355002E0C6
:1021F000C86800F6B870C86005F59A701188018744
:10220000138803E0C86800F5B060C860A5F87431B1
:1022100006222868C16801F59071C160B91C387840
:10222000C0F3801085F82E0105F594701EF0EAFECB
:10223000A8791FF0C5F8060004BF00201CF0A4FE1A
:1022400094F8B90086F83A000422DFF87C6507F1BB
:102250000E0105F124001EF0D5FE306895F806C089
:1022600000F10C03042207F10E0103EB4C101EF0E9
:10227000C9FE032207F1120105F128001EF0C2FE7B
:102280003068AB7900EB4313032207F1120103F12D
:1022900010001EF0B7FE05F12C08787D88F80200CA
:1022A000022207F1160105F130001EF0ABFE0222FA
:1022B00007F1180105F132001EF0A4FE022207F119
:1022C0001A0105F134001EF09DFEB8F8080068847C
:1022D000022207F11C0105F136001EF093FE98F86A
:1022E0000200B8F80A10400088F802000901B8F8A6
:1022F0000400A8F80A104000A8F8040089B2B8F851
:1023000006004000A8F8060003046A8C521CDB0B90
:102310005A438A4201D280B238B9DFF8B00400785B
:1023200080210EF04DFA3B2139E105F12E012846BE
:1023300020F01EFA0520A881284620F015FA052273
:1023400007F11E0105F161001EF05CFE97F8230005
:10235000400988F8000020F003FA688205F59A72B7
:10236000618D401AD08005F1610197F8230000F0DB
:102370001F0088F80F00284620F0EEF9616D4A78BA
:10238000206DD1064CBF816CC16E0868DFF84074C7
:10239000002101714FF01C0AA97938681AFB01F17C
:1023A00041F6210242520021AB791AFB03F30344A8
:1023B0005980AA791AFB02F210444160616DDFF87E
:1023C00014044A78D1060DD5DFF80C148A7851062A
:1023D0000AD5DFF80824138841F20A418B4208BF6E
:1023E000DFF8FC03C5F89C01D5F89C112846884706
:1023F0003A68A97902F10E031AFB01F15854A87941
:102400003A6802F10E011AFB00F3C95CDFF8D4331D
:102410001A681154A97938681AFB01F101440020A7
:10242000C87398F80C1088F80D10606D4178CA06D2
:102430001DD595F8960108B91CF0A6FDA979386854
:102440001AFB01F1014495F89601421E0A74A8791D
:1024500039681AFB00F00844002141743A68A979F0
:1024600002F112001AFB01F1002242522BE0A9797D
:1024700038681AFB01F10144206D90F840200A747D
:10248000A87939681AFB00F00844216D91F84120C1
:102490004274206D3968AB79403001F112021AFBA9
:1024A00003F34188D15205F5CB710078012200F089
:1024B000030082400A70226D92F84000800814BF29
:1024C0000120022008713968A879DFF81CB301F1F6
:1024D000140231681AFB00F301EB4010D050A879C8
:1024E00039681AFB00F00844C0498161DBF8140028
:1024F0000078C1074CBF1F200F20DBF814100978AB
:102500008A0748BF40F02000DBF8141009784A071A
:1025100048BF40F04000DBF8141009780A0748BFB4
:1025200040F080003168AA7901EB421318723068DC
:10253000A97900EB41120B2050723168AA7901EBA6
:1025400042100421AA4A81721078012806D131680C
:10255000A87901EB40120121D17207E0DBF82400D9
:102560003168AA79407801EB4213D8723168A879B2
:1025700001EB40121F2111763068AA7900EB42115D
:1025800000204876A8790FF001F8AA793168520145
:102590008850AA7931685201885820B90721284605
:1025A0001CF054FF02E19348AA79016801EB021084
:1025B00020F0CEF8A87931688E4B01EB40121968F3
:1025C00001EB00105060A979306800EB41125168AE
:1025D000C8F83C10AA79520181587C48C8F84410C8
:1025E000042100780EF0ECF8616D4A783868D10665
:1025F00048BF02210AD4A9791AFB01F101440A7CDF
:1026000002F00302022A14BF04210621B8F80420B4
:1026100095F806C04FF4C8738A18698AAA615143B5
:10262000B1FBF3F35B1C6B611AFB0CFCD5F800E00B
:102630006044DEF80CC040F6C41101FB02C2D21A9D
:10264000A2F5A8628260AA7938681AFB02F28318A0
:102650009A682B689A6000F10C03AA791AFB02F2BF
:102660000C309B5C03F0EF038354A8793A681AFBA3
:1026700000F002F10C030C321B5C03F07F031354D7
:10268000A8793A681AFB00F002F10C030C321B5CCB
:1026900003F0F00343F002031354AB7938681AFBDC
:1026A00003F31844427B02F0F00242F0010242734D
:1026B000AA7938681AFB02F2024490682B68186104
:1026C0003068AB7998F802C000F1140268694000E4
:1026D0005B0111FB0C0000F5F660D05095F89601F7
:1026E00004280DD13268A87902F114034FEA401C86
:1026F000143253F80C00AB795B0100F56160D050E7
:102700003068AA7900F114034FEA421C53F80C20F8
:10271000C5F83421AA7900EB4210C37C03F0F00322
:1027200043F00403C374DBF830003268AB7900680F
:1027300002EB431CB8F8062042436423B2FBF3F3D8
:102740005943A1F59661CCF81C103068A97900EBCB
:102750004110C27E02F0F00242F00402C276A97972
:1027600038682A681AFB01FA00EB0A01516095F8F3
:10277000FD00010703D50E2128461FF0E5FF1E4985
:10278000072008702046AA7989F802201AF0F6FC82
:102790001A488178880704D5AA79002120461FF0BD
:1027A000CFFF28681649174A41618261BDE8F14FA1
:1027B0001FF066BCD50F0020780E0020D70F002038
:1027C000900F00208E0F00209C0E0020C70F0020CD
:1027D000980E002081010210C00C00209A0F0020EA
:1027E0004DE501101858002024440200980C0020E8
:1027F000CC0F0020A40E0020C80F0020200E0020C7
:1028000091E40000020480802DE9F04F054687B076
:10281000A978DFF8DC66002710294FF0060A3CD8BB
:10282000DFE811F0110061036103610361033C0003
:10283000CB0061036103C5021101FC0016036103B3
:102840009702DC0259036878002826D11FF074FF34
:1028500004461FF06DFF05461CF054FB8DF8000088
:102860002246102102201CF02DFE2A4610210320B2
:102870001CF028FE6A46012104201CF023FE9DF86E
:102880000000012818BF032807D1012015F0C4FF5C
:102890000246062106201CF015FE24E36878002875
:1028A000FBD195F80CB06C8900900023E97801AA5F
:1028B00001F00101281D0FF06FFB00284FF0010807
:1028C00071D19DF80400FDF763FD8146BBF1080F4F
:1028D00008BFB846307A80001EF0BAFD050003D16B
:1028E00004201CF051FBFEE2707802280CBF01208E
:1028F000002000905B469DF804104A462046FDF7F4
:10290000AAFF1422002102A81EF072FB9DF8040009
:102910001AFB00F002AA102124301CF0BFFDA8B958
:102920001022FF2102A81DF007FD78B99DF80400D0
:102930001AFB00FA06AA04210AF125001CF0AEFDDC
:1029400002AA09F0010120461FF0EEFE317A9DF83F
:1029500004002A468900E0301CF0A0FD98B9284602
:10296000FDF77FFCBA4609E005EB8000018819B14C
:10297000827820461DF0E6FB0AF1010A317A5FFAFF
:102980008AF08842F0D3B07A30B95FEA897003D513
:10299000317820461CF046FD9DF80400FDF733FD1C
:1029A00028461EF05DFD7078022805D1B8F1000FB1
:1029B00002D0204615F030FD95E2A888FEF77AF89F
:1029C0001FF0AEFE0028F7D1F07D012808D1FDF7F9
:1029D00069FDF279706AF77500211EF009FB17E0B6
:1029E000307E012803D1FDF704FE377610E0002485
:1029F0000AE0706AE5B2415D012904D1E0B2FDF759
:102A000062FD716A4F55641CE0B2F1798842F0D3DF
:102A100050201DF027FCFDF7CFFC64E21FF0BCFE48
:102A200000280CD0F06900281CBF0468002C07D0D7
:102A3000286900906B7B2A7B6989E81CA04751E2DA
:102A40006889012144E268780024002840F0DA8097
:102A5000A879C10740F1D6800822002105A81EF000
:102A6000C7FAA8881FF0BCFE040000F08E806F69D2
:102A70004FB30622002107F111001DF05DFC68B381
:102A80001022002138461DF057FCD0B9387C00F0E8
:102A900001084FF0000909F1010987F811900020A1
:102AA000009000230022414607F111000FF074FA54
:102AB00000285FFA89F002D10028ECD101E000285B
:102AC0000CD1002068610622607900F001008DF8C9
:102AD0001A00A11D05A81EF095FA1FE06F69EFB15D
:102AE000387C00F001008DF81A00062207F1110170
:102AF00005A81EF087FA6079012805D10622A11DDC
:102B000004F10C001EF07EFA062207F11101A01D4F
:102B10001EF078FA387C40F002006071A879410715
:102B200020794CBF40F0020000F0FD002071A9792F
:102B30000A0754BF00F0DF0040F020002071A879A0
:102B40009DF81B10DFF8AC83800800F001000843FB
:102B50008DF81B004FF0FF09A979C90801F00101A8
:102B600040EAC1008DF81B00FF2469691E2779B374
:102B7000102268461EF046FA102168461FF0CCFD70
:102B80004FF0000BDFF870930CE0FDF7B5FF002865
:102B9000D5D0307804210DF013FED0E70BF1010001
:102BA0005FFA80FB99F80000834510DAD8F800102E
:102BB00007FB0BF00A5CFF2AF0D0084400F10D017E
:102BC000102268461DF0FAFD0128E7D15C46A146B7
:102BD0000020009000239DF81A1004AA05A80FF009
:102BE000DBF9B9F1FF0F5CD034285AD1707D30B3D6
:102BF000012856D1A88805211FF0CAFD0124A88804
:102C0000FDF758FF68780B2804BFA888FDF794FFEC
:102C1000F06900281CBF4368002B0FD06A78A88891
:102C2000012198476878002808D1A879C10705D5FF
:102C3000F369A88822465C680321A0474BE1D8F8D5
:102C40000000002107FB09F400910023015D401CF6
:102C500004AA20440FF0A0F918BB9DF81000FDF75E
:102C600032FCF0B9FDF7A8FBFDF7F9FB8DF8100079
:102C7000E86800280CBF002101690022019003923E
:102C8000029105A9686900902B69AA689DF8100057
:102C9000FDF7FBFA0446A888FDF722FE200046D186
:102CA0004BE00020009000239DF81A1004AA05A80C
:102CB0000FF072F920B1FDF7D2FB8DF8100019E08A
:102CC0006869B8B19DF810001AFB00FA6A46102135
:102CD0000AF123001CF0E2FB60B91022FF216846D4
:102CE0001DF02AFB30B99DF81A0005A900F001007B
:102CF0001FF06EFD9DF81000F179884227D2E86838
:102D000000280CBF0021016900220190039202916A
:102D100005A9686900902B69AA689DF81000FDF765
:102D2000B4FA0446A888FDF7DBFD200005D09DF825
:102D30001000FDF7C8FBFDF73FFB200008D1707ABB
:102D40000028A8887FF45CAFFDF768FE5AE71524D9
:102D500055E7687806281FD1A8881FF041FDD8B133
:102D6000317D491E032917D8DFE801F0020E081350
:102D70004179A8880022FDF703FE0DE00022002122
:102D800040F2094003F0D4FBA88805211FF000FDA4
:102D900002E0A888FDF7D0FEF06900281CBF436858
:102DA000002B03D06A78A888022198479AE0009700
:102DB0000023E97801AA01F00101281D0FF0ECF8C9
:102DC0000028F3D19DF804001AFB00FA05F10C026B
:102DD00004210AF125001CF075FB83E0F06900284E
:102DE0001CBF4368002B03D0A8880022002198470D
:102DF000707810B9A88805216AE0A8881FF0F0FC57
:102E0000040070D0A87AC10712D500970023617919
:102E1000002201F00101A01D0FF0BEF800281EBF26
:102E200060790028012803D0E868C0F3402028B169
:102E3000707C022807D1A87A010704D4A88803214E
:102E40001FF066FC4FE06179A88805F1080227E0D1
:102E50002F7BAD8828461FF0C3FC040042D01FF032
:102E60009BFC00283ED100900023617901AA01F06B
:102E70000101A01D0FF090F828BB9DF80400FDF79C
:102E800087FA07F00C07042F11D0082F0BD00C2F56
:102E90000FD100F0090109290BD0617900222846E1
:102EA000FDF76EFD1EE010F0090F02D1F5E7C10736
:102EB000F3D501220092A37C9DF804100246284617
:102EC000FDF7C9FC0EE070780028E6D10521284600
:102ED0001FF01EFC06E0FDF70FFE18B1307804214C
:102EE0000DF06EFC0127384607B0BDE8F08F00BF3B
:102EF00008220020680F0020555900202DE9F04FCE
:102F000085B00D460295044615F8011B8DF8011099
:102F10000022DFF8E41488788DF8002004F1660BB5
:102F20001EF04EFA01902C219DF80100DFF8CC2410
:102F3000032804F1F40604F5B07A04F59C7704F54F
:102F4000C87804F2171900F0E180072800F0138216
:102F5000082818BF092811D00C2800F0D7810F28A5
:102F600011D0112800F04481182800F092811A280D
:102F700000F057811B2800F07C811AE22946204688
:102F800014F050FE15E2707ADFF8748481070AD4D9
:102F90000F2089F8020020461FF0B6FB002872D1EE
:102FA00098F80000DCE12878697800EB01223A8289
:102FB000A878E97800EB01227A822879697900EB18
:102FC0000122BA82A879E97900EB0122FA82287AF3
:102FD0003876697AA87A01EB00227A83E87A297B2D
:102FE00000EB0122BA83687BA97B00EB0122FA8304
:102FF000E87B297C00EB01223A84687CA97C00EB09
:1030000001227A84E87C297D00EB0122BA84687D64
:10301000A97D00EB0122DFF8EC03FA8401788A062F
:1030200058BF4FF01A0A13D504F5AA700490798B93
:103030000391387E029021890191F88A0090BB8A21
:103040007A8A398A20461FF05BFBE8B14FF01E0AEE
:10305000707A41070AD40F2089F8020020461FF039
:1030600053FB00280FD198F8000079E152460F2158
:1030700020461FF041FBF88A0090BB8A7A8AA1792A
:10308000504616F0BFFA72E104F18600798A818019
:103090000023BA8AC2800222F98A01810270438029
:1030A000A18EC91DABF81E10628E8188B1EB520F44
:1030B00002BFC188A28E914202BF0089E18EB0EBAF
:1030C000111F21D09BF81000012804BF9BF81100AC
:1030D0000F280CD09BF8150000281CBF9BF811008E
:1030E0001A2804D00F218BF81A10FE217CE0FC2155
:1030F00020461FF029FBF88A0090BB8A7A8A398A19
:10310000A0791FF0F5FA32E110216DE0707AC10765
:1031100009D431781A200129707002D1FF220D21C3
:103120003DE00D2160E000208BF800008BF80600E8
:10313000012232712946082204F1B0001FF0D4FAAE
:103140000146022204F1B8001FF0CEFA04F1A805EE
:103150000146082228461FF0C7FA074608212846DC
:103160001FF0DAFA04F19C050422394628461FF0C4
:10317000BBFA042128461FF0CFFA04F1A0001FF08B
:10318000AFFA04F198001FF0A7FA9F48018841F0B8
:10319000800101803078012805D1FF2204212046DA
:1031A0001FF096FAE3E09BF811600F2E18BF142E63
:1031B00007D00E2E18BF0C2E03D01A2E18BF162EB5
:1031C00011D19BF81070FF22042120461FF080FAD5
:1031D000012F06D18BF81A601A2E14BFFD21FB2196
:1031E00002E0314600E0042120461FF0ADFABEE0C7
:1031F00028788AF800001A286B788AF8013040F0A5
:10320000D8801068A679431C4E4300209855A379B6
:10321000126811FB03F111440871A1799AF80100B9
:10322000C0E0A77910682E784F43074406F01F03CB
:1032300017F8210FB60938B17878F040C00703D5E8
:1032400098F80600042805D120221A2120461FF0F4
:1032500053FA8CE0FB701068A27911FB02F1014473
:10326000204681F8236000211EF0BBFE0028F0D12B
:1032700074E0A37910684B430344D88808B900264A
:103280005E701068A27911FB02F101440020087100
:103290006DE069782878884204BF084010F0070F75
:1032A0006DD19BF81100162806D198F80620A17957
:1032B000134600200DF01EFA022088F802000121BA
:1032C00001984177012398F8060098F80A1088F8C9
:1032D0000000BAF81C201FF0F7F9BAF81810814264
:1032E00009D3BAF81C2098F80A1098F800000123B6
:1032F0001FF0EAF90146AAF82E10012198F80800FB
:1033000040F0400088F80800397030E0707E0128F5
:1033100010D015F8011B31770222294604F5897077
:103320001FF0E2F90146022204F58A701FF0DCF971
:10333000012070769BF8060030B93D21012289F802
:10334000011089F8002012E0F07E002804BFB07E52
:1033500000280CD120461FF0B3F930B92848007876
:103360004FF480410DF02CFA01E00120F0760121AC
:103370008DF8001021E028780F2816D01A2818D1CF
:10338000A07913684843184400234370A079126859
:1033900011FB00F150180371F07A00F0FB00F0729D
:1033A0001A20A1790AF0EFFBE1E7707A00F0FD0046
:1033B0007072204602991FF07FF99BF811001A28BD
:1033C00015D19BF8120017281CBF1028FC280ED11D
:1033D0009BF8106020461FF06BF9012E03BF1A20E6
:1033E0008BF81A00FB211A2120461FF0ADF99DF839
:1033F000000005B0BDE8F08F780E002000580020D6
:10340000C70F0020200E00209C0F00202DE9FE4F4A
:1034100004460020009080460CB91BF0B5FD04F175
:10342000500641F6230037683880A7F80280022250
:103430003A737A73694620460DF01EFC08B90720DE
:1034400050E2009901B1B860B8682061DFF89804D3
:10345000017884F8B8107068407A18F073FB253052
:103460002076B87387F80F807168087D022804BF42
:1034700000201BF089FD7068007D012802D100202A
:10348000002104E083280CBF06200220202138748C
:10349000797404F12405DFF854A4DAF83C0041699A
:1034A0000868697901EB41010844B0F801207A828B
:1034B0007068417848060AD5607DC10604D5E07F72
:1034C00040F04000E07702E040F04000607507F116
:1034D0005C0904F1300089F80080A97E890001F0C0
:1034E000040189F80010B866607DC10654D5726881
:1034F00051788A060BD500F0FE006075706841783F
:1035000011F0030F03D1E07F00F0FE00E077607D53
:103510001FF0CAF8A0750023387CA27DC0F380019B
:10352000521C00F003001FF0BBF8A0831E23A28BE7
:1035300002F59B7090FBF3F31E2101FB1300C0B258
:1035400008B1C0F11E00821802F59B7262831E232F
:10355000A28B02F5967290B290FBF3F301FB13007D
:10356000A283C0B208B1C0F11E008018A08380B24F
:10357000E27D618B521E50434018608307F1300892
:10358000608BB43080003866062089F80300E17F44
:1035900041F00801E17720E040F0010060757168BA
:1035A0004A78510744BF40F002006075607D1FF00B
:1035B0007BF8A0750023387CA27DC0F38001521CEB
:1035C00000F003001FF06CF8A083A08B00F596704C
:1035D000A0830020386689F80300A17D207D61F377
:1035E000050007F18801207508700322607D48708E
:1035F0008A70A87E800000F0040040F0030088700C
:10360000EA7ED20002F00802104388700020C870E1
:103610000021C7F89010A88BC0F30B00A883716835
:10362000CA7D40EA0230A8830022617D01F0FE01DC
:1036300020460CF007FB019700271DE01C20784373
:1036400004EB000B01991C220BF164001DF0DAFC65
:103650000BF16C00052101717F1CA28B92000260AE
:10366000FFB2DAF83C104A6911686B7903EB430347
:103670001944B1F801204281E07D401E8742DDDB24
:10368000019F204611F04EFCE07D012809D013D3A4
:10369000032809D03EBF04F164007860C6F81880A2
:1036A0000AE0C7F8048007E004F16400786004F1E0
:1036B0008001B161C6F8348041F6240038860021CB
:1036C000798607F13C08B868618B00EB8100B8632C
:1036D0000221822088F8000088F80110002194F867
:1036E000210088F8031000F03F0088F8020070689D
:1036F000807D012818BF022803D100F07F00401E02
:1037000004E083280CBF06200220202188F8040052
:1037100088F805104FF0000BDAF83C0041690868A2
:103720006A7902EB42021044B0F80110A8F80610C2
:10373000C7F86CB07068417811F0030F20D01EF00C
:10374000ABFFF866DAF818000078C1074CBF1F20FD
:103750000F20DAF8181009788A0748BF40F02000D7
:10376000DAF8181009784A0748BF40F04000DAF844
:10377000181009780A0748BF40F0800089F8140043
:1037800089F815B071685A4A887C00F0030089F8FE
:103790001500A97E890001F00401084389F815008D
:1037A000E97EC90001F00801014341F0100189F8E8
:1037B0001510107838B199F8140000F0FE0041F0AF
:1037C000400189F8140089F81510E07F1EF06CFFA5
:1037D00084F8200020461EF05BFFE07FC10635D54F
:1037E000706894F820204178521C88074EBFD21E82
:1037F000E87F121898F80400C0F380010023D2B2C9
:1038000000F003001EF04CFF28801E22288800F5DF
:103810009670C0F11E0190FBF2F21E2000FB021117
:1038200029717168487881074CBF00204FF49B7064
:103830002988401828806880B86B29882A7952180E
:10384000A63200EB82007867022002E0C7F874B06D
:10385000002089F8170004F13000C7F8800007F154
:10386000840071684A78510707D504F13802026074
:1038700099F8150040F0200007E01E490A685168D9
:10388000016099F8150000F0DF0089F81500A17FAC
:1038900094F8200060F30501A17740F60B00A8F82A
:1038A0001000A8F812B0DAF83800008880007865B7
:1038B000DAF83800008800B1072088F81C000220E0
:1038C00088F81D0094F84510A8F81E10706841781B
:1038D000880744BF0121A8F81E10009808B10BF01A
:1038E00012FF0020BDE8FE8F515900202444020041
:1038F000880E00206C0F00202DE9F84F15F086FD92
:10390000DFF85C14DFF85C9408884988A9F8121085
:10391000A0F52F7299F80610A9F81000B2F5FA6F09
:1039200000F22A81002900F02781002089F8060092
:10393000B9F8100040F6FC01884205D840F2513138
:10394000884204D840F252310846A9F8101099F87C
:103950000820DFF8204499F8071024F81200B9F87D
:103960001220A2F52F73B3F5FA6F03D811B100211D
:1039700089F80710B2F52F7F06D399F805301BB9E7
:1039800040F68D239A4235D34A1C99F8041089F8E1
:103990000720D2B2052A03D311B9012289F80520E4
:1039A00041BB40F25231884224D8DFF8CC73012069
:1039B0004FF00E08002589F8040089F802803D7058
:1039C0000BF04CFD38781EF01BF8112011271CF06D
:1039D00007FE99F8010089F8055012280AD3E24839
:1039E00089F80170E2490E22006880F82780DF48DC
:1039F0001DF086FDB9F8121040F6FC00814205D892
:103A000040F23D30814204D840F23E300146A9F8F0
:103A1000120099F80820D648002300EB4202918159
:103A200000220021032A08D034F81250294400EB68
:103A300042050132AD892B44F4E7DFF840E399F801
:103A4000024089B2CE4F642640F2AA5299F804503F
:103A5000DEF800C08CF80A400324B1FBF4F111FB3E
:103A6000067191FBF2F1C74A11809AB240F2BE533F
:103A7000B2FBF4F212FB067202F5FA6292FBF3F269
:103A8000C14B94B21A805DB9B9F80C30012B40F0EB
:103A9000A1801E2C00F29E808AB21F2A80F09A809C
:103AA0000023A9F80C30DFF8E4A2ACF80840B84CC9
:103AB0008CF80B30BAF800202280B64A14682289AC
:103AC000A47A002CAAF8002040D0B34C24682478B3
:103AD000112C3BD3408889B24FF0000BAF4D4843C7
:103AE0006421002B08BFB0FBF1FB99F8000001280E
:103AF000A5F800B076D1002A144608BF01245FEA79
:103B00000B4072D0A648D9F818100088824201D222
:103B100000296CD082426CD300296AD100EE104A91
:103B200001EE100A1DF06AF941EC100B9FED7E1BAF
:103B3000FDF77EFD0120C9F8180051EC100B12F0C2
:103B40004BFF00EE100A28882E466BE093484FF09A
:103B5000000BA9F80AB0A0F800B0DEF80000A0F849
:103B600004B099F808000130C1B2022988BF0020D2
:103B700089F80800BDE8F88FB0F52F7F04D340F630
:103B80008D229042FFF4D4AE481C89F80600C0B2E2
:103B90000528FFF4CDAE99F8030000287FF4C8AEE5
:103BA0004FF486701024A9F8020010201CF018FDB4
:103BB00099F801001128FFF4BBAE6B480C2189F87D
:103BC00001400C22006880F82710684868491DF001
:103BD00097FCADE6002B7FF466AF1F2CFFF463AFBC
:103BE00001235EE7A9F80AB0B7E74FF0000B2E46B5
:103BF00022E0824273D3002971D000EE104A01EE18
:103C0000100A2E461DF0FAF841EC100B9FED461BF2
:103C1000FDF70EFD51EC100B12F0DEFE00EE100A67
:103C2000B9F80A0001EE100AB8EE411A20EE010AB6
:103C3000BDEEC00A10EE10BAA9F80AB060001AF082
:103C40009DFE9FED3B0B53EC102B0AF027FB9FEDE5
:103C50003A0B1EF07BF89FED3A0B02460B4651ECF7
:103C6000100B08F00DFA9FED380B1EF06FF89FED6A
:103C7000380B1EF06BF89FED380B04460D4657ECE1
:103C8000108B42463B4614F0B3F800281CBF3D465B
:103C900044462046294617F05BF81FFA8BF1A9F835
:103CA0001400DFF8D8E0814284BFA9F80A008346F7
:103CB00030881FFA8BF1814284BFA9F80A0083463D
:103CC0003748BAF8001000888142FFF446AFD9F8AF
:103CD000180000283FF441AFA9F80EB03DE782423A
:103CE0001ED2E9B199F809001FFA8BF2B9F80E302B
:103CF0002E46411C4243C0F1140000FB0320142255
:103D000089F8091090FBF2FBC8B21528A9F80AB08F
:103D100094D3012089F809000020C9F818008DE724
:103D2000B9F80AB02E4689E70000000000000840FC
:103D3000EA2E4454FB2109400000000000004E40E0
:103D40000000000000C0724077BE9F1A2FDDE23FE6
:103D5000120DF736A2204D3F000000000040CF407A
:103D600074580020E02E002098580020A858002009
:103D700044300020B657002083590020A05800206E
:103D8000F8B3FEFF445900203A5900203259002070
:103D9000305900209C580020A45800202C590020A5
:103DA000345900202DE9FE4FDFF844B4DFF84474A5
:103DB00005469BF8000000284CD0052872D0062844
:103DC00000F07F80072818BF082800F0F5800A2837
:103DD00000F0E281112802D013286FD000E2DFF852
:103DE0001824107800211EF0CBFC04001EBF606D6B
:103DF000407810F00C0F2DD0216DC0064CBF886CA0
:103E0000C86E016801F108050622A91C68461DF06C
:103E1000F9F8287800F00F0105291BD145096946FA
:103E2000C0F380101EF030FC002813D039686846BB
:103E30001EF026FC0646396804F138001EF020FC0E
:103E400086420DD0606D4178C80604D440F201402E
:103E50001EF012FCCAE1607B40F002006073C5E115
:103E60003B681E204643981906226946C01D1DF076
:103E7000C9F8606D4178C806F1D5A17B0129EED162
:103E8000DFF878038178480605D5E90703D4206D6B
:103E900041F20A4102E0206D41F204414180418338
:103EA0004186A3E11EF097F80028FAD112F044FCF5
:103EB000012802D001201EF0DBFB97E113F0ABFFDD
:103EC00094E1DFF83C5328681EF0CEFB0400F7D0E5
:103ED00020790328F4D1207A00F00F01072938D186
:103EE000DFF8200300684169497A4A1E11425CD01C
:103EF000617A04F10A035A5C02F03F02252A54DB7E
:103F0000A17A8A09012A50D111F03F0F4DD0007CCF
:103F10001DF064F8E17ACA074CBF04F1110204F104
:103F20000B028B0748BF921D0B0748BF921CC906A6
:103F300048BFD21C1278520916214A43B2498B1845
:103F40000A31EB608A5A428699898186DA89C2866B
:103F50002BE000F00F00082827D1A17A880924D18E
:103F600019B3A8480168087C1DF038F8E17A0646C4
:103F700088071AD5062201F001015143601800F1AB
:103F80000C0168461DF03EF8207AC00969461EF013
:103F90007BFB50B1386800F10D0168461EF060FBF4
:103FA00018B9052130461BF051FA2079032802D0B8
:103FB00000201AF0E9FF0FE1944FB8780024FF28A1
:103FC0001BD01DF00BF8804608F16C09D9F80400ED
:103FD0001EF04AFB2A460179032901D011000CD0BA
:103FE0008368197801F003008D06009003D5012441
:103FF000009818B9CDE01000FAD0F7E05D7803F131
:10400000020A34B31AF8010B814B01902C2098F866
:1040100006C01E6810FB0CFC66444FF0010E86F8CB
:1040200005E0002A1E6898F806E006F11A0C019EC9
:1040300010FB0EFE06F01F060CF80E6098F80660E6
:104040001B6810FB06F01844019BC3F38113C37671
:104050001AD10098032808F217161AD0ADB199F8B2
:10406000000068B108F1F4000278012A0DD19BF834
:104070000020072A04D0082A04BFC078012804D1F0
:104080003D21717001203070B0E0624A1378012B3D
:10409000FAD098F8940000283CD030782D1F0128E1
:1040A000EDB2F1D053462A46404610F0BBFF00283F
:1040B0001EBF59490878002813D13D217170012095
:1040C000564A3070117801290AD1554C20784FF4A6
:1040D000805119F0A3FD20784FF480510CF070FB53
:1040E00084E050480168884701904FF4D07098F8F8
:1040F0000620796842438818002180F8411108F5AC
:104100009E7001688079490812F0E4F846490198E8
:104110000A689047009803281DD0444948690078F0
:1041200082070DD598F89400002814BF281D284652
:104130004A691178CA0748BFC01C1AF8000000E09D
:10414000812089F808002A460098C3B2B878514601
:1041500005F076FF1DE09AF800001CB11B2804BF93
:10416000022D01251C2803D231490B5C9D4205D04C
:10417000B070072140461EF0E7FA0AE09BF8000005
:1041800008285146404602D11DF0DDFE01E0FEF751
:10419000B5FED9F8040020E0264C207830B3264D37
:1041A00028681EF061FA08B3017903291ED1017A4B
:1041B0008A0611D5807AE178C0F38112914202BF5C
:1041C000217900F01F00814206D1A078002801BFAC
:1041D000607800280121A17028681EF03DFA05E0F2
:1041E00000201AF0D1FE86201EF0C6FABDE8F78F37
:1041F000C80F0020680F0020D50F0020C00C002041
:10420000BC0A0020540F0020E0070020780E002098
:1042100000580020D20F002056590020880E0020A0
:10422000C70F00203432002038320020244402001E
:10423000DC4702005C570020AC0C00202DE9F8435D
:1042400005460C46480413D4A00024D4A0075CD42F
:1042500060057ED4200500F10681200700F13B8136
:10426000600040F1F68013F0E9FA24F08044F0E0B9
:104270001DF022FADFF81C140F6D3FB1D7E90A12C6
:1042800002F0E04201F00A01891849D01DF0E3FD77
:1042900024F48044DDE0BB48DFF8FC73016841F0A2
:1042A00080010160B878012804D1042019F02AFEA9
:1042B0000020B8701DF000FA064604201DF074FAC4
:1042C000DFF8D8130A68904219D12A7EBAB1FA6889
:1042D000AAB1DFF8C003806C002800F09780C168A5
:1042E00040F603020988914206D0C06840F60401F6
:1042F0000088884240F08A8005F1140088E040F68A
:10430000C4120860C5E9042284E007F0F7FADFF878
:104310008403006C002840F09D8024F0020498E0A3
:10432000D7E90A65D7E90A12AA43B143C7E90A12D5
:104330001DF091FDB8680028AAD056EA0500A7D064
:10434000D7F808C03869B7F9301032462B46E04735
:104350009EE71DF0B1F905461BF092FA002800F027
:10436000B780CC48876B002F00F0B280DFF828833D
:104370000420CB49002288F81800C6481CF06CFCC9
:104380001DF090FDC7481DF05DFDC7480068006B3B
:104390008047C8F810000125042088F802501AF060
:1043A000F7F8386990F82810C8F80400490703D5D1
:1043B000436A042100229847012014F049FCD8F8F0
:1043C000040045760EF092FCD8F8040081680B4694
:1043D0001A465B684BB11E88A6F60306072EF7D86F
:1043E00005FA06F616F0830FF2D0537B03F0F003C4
:1043F000013353730023FD6853602D88A5F6030530
:10440000012D00F28A80C8F810309FE005F11000FD
:1044100017F000FA30461DF01EFD1AF0D1F878B101
:104420002E6A28466FF4807100224FF00073B04767
:104430009848806B10B113F001FA01E044F00204D7
:10444000EE692846002100224FF08063B04724F037
:10445000005434B1974821462830BDE8F8431DF098
:10446000E4BDBDE8F8838C4EB078012804D1042067
:1044700019F048FD0020B0701AF0A2F838B1706849
:104480006FF4807100224FF00073056AA84730690D
:1044900050B185480068006B804732697168801AA6
:1044A000000BC860002030617A4D81490022284607
:1044B0001CF0D2FB02203076286C20B17D4802210E
:1044C00028301DF0B2FD13F0B9F924F40064C0E700
:1044D0001DF0E8FC41E01DF0EFF805461BF0D0F9B7
:1044E000A0B1DFF8B48198F8000000070ED498F965
:1044F000000000280AD468460EF03EFD08B100987E
:1045000020B1DFF8B49199F8610048B31DF0CAFCFE
:1045100013F094F924F008049BE7034633F8385F5E
:10452000A5B190F8445090F8456005F0F00580F88A
:10453000445006F0F005013580F8455000255360E1
:10454000C5634587507B00F0F00050735748002248
:10455000C261016001201BF095FC24F4806478E7BF
:1045600000260127602E0FD009EB0600817A31B1B9
:104570008772407A07FA00F0C0B219F0DDFC2036ED
:10458000F0E700BFCC210840032088F81800454818
:104590001DF058FC1DF086FC444F3E4D002278690A
:1045A00000207861F968F860284644491CF054FB03
:1045B0003D480068006B8047D8F80C10D8F82020E0
:1045C000411A02EB1130B0EB113F38BF4FF0FF3012
:1045D00098F82410C8F8200021B1D8F80810B0EBE2
:1045E000C12F20D91BF05EFCB8B140F6090041464E
:1045F00021F83C0F002048804A7B02F0F002013293
:104600004A730A7B02F0F0020A734860F86139606D
:10461000B8F83E0010F4406FFAD00020C8F820002F
:10462000012088F8240016F0DFFA254800210160F7
:10463000022000211BF026FC022019F063FC102050
:104640000DF0BCFE98F8010020B9D8F804005030F5
:104650001DF0E7FC1B48807810B90D200DF0AEFE70
:1046600098F8250028B1002088F82500052019F0C9
:1046700049FC002088F818001348C8F81C000220E4
:10468000B5F85610B5F85420914208BF072012F033
:104690007DFA3DE7F0290020902700208C33002090
:1046A0005DF80100A05200208C01001000100440B1
:1046B000A1E1000030290020E84D0020A178010090
:1046C000000004607C49020091DC00002DE9F04FFD
:1046D0000F46380589B018D5DFF8F4532888FF282D
:1046E0000ED0C0B21CF07AFC040009D0A0791621CB
:1046F0001DF0AEFF20461CF067FC20460AF080FB50
:10470000FF20288087F40060DFE1F80504D514F06D
:10471000D8FC87F48070D8E1B80604D51DF02BFCD6
:1047200087F02000D1E1F8070CD51CF071FE30B104
:1047300000218160DFF89C03006800B1804787F0AA
:104740000100C2E1380704D51DF017FC87F008000E
:10475000BBE1F8060FD50021002200230691059247
:104760000491039302910192009102201DF06CFFCD
:1047700087F01000A9E1B8070FD5002100230691AA
:1047800005910491039302910191009101223C2033
:104790001DF05AFF87F0020097E179074FF01E08DD
:1047A000CD4EDFF838A340F1D580CD48002200215E
:1047B0000892079100781DF0E3FF0446C94881780C
:1047C000FF2904BF00201AF0DFFBA07A1CF006FCD2
:1047D00005469AF8000095F82E91002805F5947B7F
:1047E00071D0606D807A022818BF032807D1306825
:1047F0000D301DF025FF10B93068C11D07915946D5
:1048000048461DF041FF00283BD0606D807C336836
:10481000002818BF012804D1194658461DF030FF62
:1048200004E05A46494618461DF0DEFFFF284AD0EC
:1048300008FB00F83068404406225946C01D1CF0B1
:10484000E1FB306810F80810404400F1010B41F022
:104850000209C01D089009F0010185F82E110622F9
:10486000594605F594701CF0CDFBA8791CF0A8FD05
:10487000060008BF1AF088FB94F8B90086F83A00E1
:1048800021E0594648461DF0D7FEE0B130685A464F
:1048900049461DF0A9FFFF2815D018FB00F8306825
:1048A00040440D301DF0CCFE58B9306840440D3006
:1048B0001DF0C6FE002801BF30684044417F012939
:1048C00001D149F0020905F12C004B46017806910F
:1048D0004289120905920122698C0491C0880899C5
:1048E000029140080390CDF800B007980190002095
:1048F000A9791DF0A9FED5F89C017B4988420CBF1F
:1049000000210121A8791DF093FE7848AB79026857
:104910002C214B43134401221A73AB7904684B4397
:1049200023445A73AB7904684B4323449A73AB799D
:1049300004684B432344DA73AB79006811FB03F13D
:104940000144002008740720A97912F044F887F088
:104950000400BAE038060FD5002100230691059126
:104960000491039302910191009101223B201DF0DB
:104970006BFE87F08000A8E0F8045DD55C493068E4
:104980000C680D301DF05CFE002844D13068C11D5C
:104990000D301DF049FE3EE0606D4178480704F19E
:1049A0003E0526D5287802281EBF032868780128EE
:1049B00030D16978306804F138021DF015FF814666
:1049C000B9F1FF0F15D0306818FB09F948440D30D4
:1049D0001DF036FE68B930684844C11D0D301DF029
:1049E00023FE30684844C11D062204F138001CF043
:1049F00009FB2878022818BF03280BD130680D3036
:104A00001DF01EFE30B93068C11D062204F13000D1
:104A10001CF0F8FA2468002CBED13648DAF80420DD
:104A200000784FF4805117F0F3F810B18E201DF08C
:104A3000F7FD87F4805048E0B80505D51DF04AF928
:104A40002D4901200860FEE7780504D51DF057FBCD
:104A500087F4806039E0780405D581201DF0E0FD01
:104A600087F4804031E0B9042ED5244C206810B181
:104A700000201AF089FA4FF0FF3020600020204C0F
:104A800010F026FF216851F8202F684690471D49F5
:104A90004A6B086BC96A24681B4B01920090ADF801
:104AA000101002936B46194A19480168194803927D
:104AB000194A07922568194AA8471949086003F05E
:104AC00029FF87F4005000E0002009B0BDE8F08F16
:104AD000D0330020480F0020680F0020880E0020EF
:104AE000D70F0020780E00204DE50110005800205F
:104AF0004C0F0020C70F00207C052043380F0020FA
:104B0000200F002024270020F113020001140200CE
:104B10000C580020904800201EFB0080EC0A00206A
:104B20001C0F00202DE9F84FDFF82854A978002445
:104B3000FF2904BF00201AF027FAA8781CF04EFACB
:104B4000054605F1680605F5C9773168086805F17D
:104B5000900808B1EC8311E0B07B002804BFB07E60
:104B600000280BD198F80010002904BF38780028DD
:104B700004D1287F012804BF688CE8832989E88B49
:104B80004118491C698128461DF046FD01281EBFB9
:104B9000DFF8C4030178012903D12989EC83491C7A
:104BA00069814FF6FF79B07E01280DD1B28B6989FA
:104BB00028891DF02DFD38B1298968894A1C93B2D6
:104BC00098422FD0B08B23E098F8000001280FD135
:104BD000B8F80220698928891DF01AFD40B1298999
:104BE00068894A1C93B298421CD0B8F802000FE0C2
:104BF0003878012816D17A88698928891DF008FD3E
:104C000080B1298968894A1C93B298420AD0788871
:104C100092B2904206D04844688180B21DF0F4FC04
:104C20004844E883387801280FD128897988401CC6
:104C300080B2884209DB7C793C71022038702346BF
:104C4000A979224600200BF055FD05F59A710879E7
:104C500020B128890021401CE9836881B07E0128A9
:104C600013D12989B08B4B1C9BB298420DD168811E
:104C70001DF0CAFC05F12E01B6F820808A8802FBDF
:104C80000088284610F08EF903E005F12E00B0F8F8
:104C90000480E88BB14B411C01FB08F82968CA6805
:104CA00040F6C41909FB0822CA60AD49DA7BD30774
:104CB00002D56B8A00220BE00A88521C93B2012BAA
:104CC00003BF05F59A7CBCF8063003F2DC536B8A0F
:104CD00003FB08F34FF4C87CB3FBFCF35B1C6B6174
:104CE0000A8085F82000C5F818804FF01C0BDFF80B
:104CF00074A2AB79DAF8000000F108021BFB03F3A1
:104D0000D1582A68116100F10801AB79D26868694D
:104D10001BFB03F3121ACA50DAF80000AB7900F15A
:104D200008021BFB03F3D1582A68916000F10C02C2
:104D3000A9791BFB01F10C30535C03F0F00343F045
:104D400002034354DAF80010AB798A1C1BFB03F30F
:104D50000021D152387908B91AF016F9DAF80000B2
:104D6000AA7900F1100138791BFB02F2400888543F
:104D7000A879DAF800101BFB00F008440021417408
:104D80003879042814D1A879DAF800101BFB00F058
:104D900001F110021031135C3A7A43EA82030B549A
:104DA000AA79DAF800001BFB02F2024420205074BA
:104DB000DAF80010A87901F112021BFB00F00021C3
:104DC00011526949A8790A6802F114034FEA401C9C
:104DD000143253F80C00AB79D5F814C05B0100EB2A
:104DE0004C00D050B07E02280DD10A68AE7902F195
:104DF0001403760114329859AB7995F82E605B0153
:104E000019FB0600D05005F12E025448C37BD80789
:104E10005ED5DAF80000AE7900F108041BFB06F657
:104E20000830A359AC791BFB04F4A3F5A863035124
:104E3000DAF80000AC7900F108031BFB04F4185900
:104E40002B6898600446494800FB0848C3F8108066
:104E50000868AE7900F1140476011430A359AC79D6
:104E6000640103F5F6630351387904280BD108680F
:104E7000AE7900F1140476011430A359AC796401C1
:104E800003F5616303510868AC7900F11403640110
:104E90001859C5F83401364B186B0C68AE799288F6
:104EA000006804EB461742436424B2FBF4F409FBA8
:104EB00004F0A0F596692F48C7F81C900278012AE3
:104EC0002FD10868A97900EB41120120D0722FE0A0
:104ED000042C0BD10868AE7900F11404760114306B
:104EE000A359AC79640103F561630351387904284F
:104EF0000CBF4FF4AA504FF4E6600B68AE7903F193
:104F000014047601A359181A938809FB03F3A3F537
:104F100016739842BFD3082128461AF097FA012049
:104F200016E0586A0968AA79407801EB4213D872F2
:104F3000A879DAF800102A681BFB00FB01EB0B00D4
:104F4000506007210C480170284611F015F9002027
:104F5000BDE8F28F780E0020D10F0020980C0020C1
:104F600026590020980E00209C0E00203CF6FFFFE2
:104F700024440200CC0F0020C80F00202DE9F0418E
:104F80000646FF2818BF20282AD11CF0C9FD10F0C2
:104F90001F0F22D0042018F0B5FD08B1042016E040
:104FA000012018F0AFFD08B1012010E0022018F038
:104FB000A9FD08B102200AE0102018F0A3FD08B1F5
:104FC000102004E0082018F09DFD20B10820BDE865
:104FD000F04118F0CFBD19F0D7FF0020BDE8F081F7
:104FE00018F0C8FD5FEA000814BFD8F80450002587
:104FF000012E46F2A81740F6C4140BD0022E69D039
:10500000042E00F0B880082E00F01281102E00F05F
:105010005981E2E7012018F075FD00281EBFDFF876
:105020006C03006800281CBF8788BF00102018F0A0
:1050300069FD18B3102018F09DFD040002D06668C9
:105040005EB900E00026022018F05CFD28B10220C5
:1050500018F090FD040018BF66686DB1012018F0CB
:1050600051FD002818BF002E06D0B068C11BA868EB
:105070001BF0A8F800282BD02046AFE7022018F03C
:1050800041FD38B1022018F075FD040014BF6668B8
:1050900000260AE0042018F035FD50B1042018F075
:1050A00069FD040014BF66680026002DE4D00120CD
:1050B00040E1082018F026FD28B1082018F05AFD1C
:1050C000040005D053E0012018F01CFD002885D015
:1050D000404683E7022018F015FD60B1AC48016836
:1050E000AC48CA69017801EB81015318D88804FBE8
:1050F00000F707F51667042018F004FD38B1042006
:1051000018F038FD040014BF6668002622E008206D
:1051100018F0F8FC98B1082018F02CFD040002D01B
:105120006668BEB900E00026012018F0EBFC88B1EB
:10513000012018F01FFD040018BF66680AE0012076
:1051400018F0E0FC50B1012018F014FD040014BF69
:1051500066680026002D8FD00220EBE0102018F0AA
:10516000D1FC30B1102018F005FD0400B0D060680B
:10517000EBE00220A8E7042018F0C4FC58B18648F0
:10518000016886484A69017802EB0113988904FB9B
:1051900000F707F51667082018F0B4FC98B108204E
:1051A00018F0E8FC040002D06668DEBB00E00026D0
:1051B000012018F0A7FCA8B3012018F0DBFC0400C4
:1051C00018BF66682EE0012018F09CFC38B1012061
:1051D00018F0D0FC040014BF6668002622E01020FE
:1051E00018F090FC98B1102018F0C4FC040002D014
:1051F0006668BEB900E00026022018F083FC88B182
:10520000022018F0B7FC040018BF66680AE002200C
:1052100018F078FC50B1022018F0ACFC040014BF68
:1052200066680026002D23D0042083E004204BE78D
:105230001CF0C7FE08B1D0F89070042018F062FC92
:1052400038B1042018F096FC040014BF66680026EC
:1052500032E0012018F056FC58B1012018F08AFC09
:10526000002D044604D0082018F04CFC00286ED114
:1052700002E7102018F046FC98B1102018F07AFCD4
:10528000040002D06668BEB900E00026022018F0D3
:1052900039FC88B1022018F06DFC040018BF666864
:1052A0000AE0022018F02EFC50B1022018F062FC37
:1052B000040014BF66680026002DD9D0082039E00C
:1052C000082001E703201CF07EFE08B1D0F898709A
:1052D000022018F017FC38B1022018F04BFC002D0A
:1052E0000446C5D01020BFE7042018F00BFC38B1ED
:1052F000042018F03FFC04000CBF0026666816E08E
:10530000082018F0FFFB18B3082018F033FC040045
:1053100002D066685EB900E00026012018F0F2FBBA
:1053200028B1012018F026FC040018BF6668002D83
:105330009ED0102018F0E6FB002818BF002E97D052
:10534000B068C11BA8681AF03DFF002890D1BFE6E5
:10535000012018F0D7FBB0B1012018F00BFC0400BD
:1053600014BF66680026002D05D0102018F0CAFB77
:10537000002818BF002E3FF47FAEB068C11BA8689C
:105380001AF020FFE1E710209EE600BF145800202D
:10539000500F0020D80F0020540F0020D90F0020FC
:1053A0002DE9FE4F0422FF2101A81BF021FEDFF8AA
:1053B000DC63B078FF284FF0000800F0E5811BF0B7
:1053C0000DFE0546B0781BF0FBFF074605F21710EF
:1053D0000178012908BF417800F05B8105F174066E
:1053E000B07B022817D1387FC0F3C00088B105F127
:1053F0002E0001890909009105F12E01C3888A88D0
:10540000A979520800201DF0FBF8387F00F0E70072
:10541000387786F80E8095F89201022808BF85F843
:105420009281307F022808BF86F81C8005F5927BA8
:10543000BBF80E1019B19BF80C000BF0C1F9072056
:1054400011F001FB6889D24C2881A27A94F807E018
:10545000237BE17A607B02EB0E0999448944814405
:10546000CDF80090B7F81EA0B7F820C0D644A7F832
:105470001EE094F808E0E644A7F820E0B7F822C060
:1054800094F809E0E644A7F822E0B7F824C0B7F89A
:1054900026E09444A7F824C07144F984398D0B4464
:1054A0003B85798D08187885BB8D20781818B885CC
:1054B000F98D60780818F885398EA0780818388634
:1054C000798EE07808187886B98E20790818B88621
:1054D000F98E60790818F886398FA079081838870E
:1054E00005F58D718888401C8880B5F81A310098C0
:1054F000C318A5F81A3105F58D734888101858801F
:10550000DBF80000F8B1A34995F806E00B681C2110
:1055100003F10E0C11FB0EFE1CF80EC030F81CE05F
:105520000099714420F81C101C2195F806C00E3318
:1055300011FB0CFC13F80C3000EB4300B0F84A10E0
:105540005218A0F84A2019F0A3F9E079DFF8489240
:10555000002804BFE07A002805D1207B002804BF82
:10556000607B00283DD0A7F80E80C246F87EC009B7
:105570000DD0387F00F00701022904DA411C61F3E5
:105580000200387703E0A87900211CF028FD298962
:10559000E88985F810804118287FA981012804BF77
:1055A000688CE883A9790122072011F014FA607849
:1055B00058B101212977B078002804BFB07B0028BA
:1055C00003D1307F08B9688CE8839BF81400002869
:1055D00068D0022804BFE07A00285ED18BF81480DE
:1055E00060E0A9790022072011F0F5F9A5F81E80E6
:1055F000397F11F0070F02D1F87EC00903D0A879D6
:1056000000211CF0ECFC287CA17A05F58D7261B1BB
:105610004FF0010A08B1E889A88185F81080287F39
:10562000012826D1688CE88323E0D188491C4FF0FB
:10563000020AD180E8B1D9F80000AB7995F82E7054
:1056400000F1140168694FEA400C40F6C4105B0198
:1056500010FB07CC0CF5F66C41F803C0D9F800102C
:10566000A87901EB4010C17C01F0F00141F0040188
:10567000C174A8892989814206D0884297D2081A24
:1056800041F2AB01884292DA108800280CBF3E211B
:105690000821284619F0DAFE76E0607A10B102217E
:1056A0008BF81410E07BC1070ED520692968C8600B
:1056B00000F59070C860D9F80010AA7901F11400C3
:1056C00052010021815016E0D9F80000A97900F1BB
:1056D000140249015058CBF810002E48AB790168EC
:1056E0001C2001F108024343D0582968C860A5F87E
:1056F0001E8085F81C80294A50690078810702D5F0
:10570000A07B802800D181203070254991F82000AD
:1057100018B1294601201CF052FC28460CF076FAFC
:1057200002281CD1F079022805DB01AA1D49284670
:1057300012F012FE804628461CF05EFF012823D09E
:105740005FEA08000DD0424601A9284613F088FB05
:1057500038B928460CF05AFA012802D114E0012881
:1057600012D0012128461CF043FF009881B22A463E
:10577000504609F0BBFBFFF7D5F9012804D02846B5
:1057800015F029FC1CF07CFCBDE8F78F780E00209A
:10579000980C0020980E00209C0E0020244402004B
:1057A000D0540020BC3300202DE9FE4FDFF8887371
:1057B0007E681EB9BDE8F74F1CF016BF3078DFF8E1
:1057C0007C93DFF87C53DFF87CA3012818BF022804
:1057D0000DD0042818BF082809D0102818BF202889
:1057E00005D0402818BF802800F0C9809DE11CF03A
:1057F0009DF90028FAD0012018F084F920B1012089
:1058000018F0B8F918F02AF9082018F07BF920B13F
:10581000082018F0AFF918F021F93078FFF7AEFB47
:105820005FEA000814BFD8F8044000249AF8010089
:1058300000286AD01CF020FC1BF0D0FB009001680F
:10584000009801914E6881798AF8031014B94FF0DD
:10585000020B04E0019940461CF00CFC83460098C2
:105860005A4641461CF0B3FB584502D003283CD0B1
:105870008346BBF1020F13D098F80000012802D034
:10588000082877D051E1BBF1000F05D11CF0A8FE2C
:1058900000F5E8504C30A0600120B87011216BE099
:1058A0000198017880290BD10820A74928700A782F
:1058B0007069012A1ABFD9F82410097801211DE066
:1058C00007202870009988791BF07AFD0446207B18
:1058D000C1070BD5009880791BF080FB052119F0DA
:1058E000B5FD207B00F0FE00207323E1964801788F
:1058F000706901291CBFD9F824104978C172009839
:10590000817901988AF802100BE1B8F1000F17D0E5
:10591000012241461CF05BFB032808D098F80000E8
:10592000464509D1012818BF082801D12CBB01E147
:10593000002019F029FB20E0012802D0082817D008
:10594000F3E0002CF3D01CF04BFE0146A06801F5FB
:10595000C241A8311AF036FC28B91CF041FE00F50E
:10596000E8504C30A060112028700121B97004E08B
:10597000002CDCD0B870122129704046D1E09AF892
:105980000100002800F09A801CF076FB1BF026FB3B
:10599000044620680090D0F804809AF802001BF0BA
:1059A0001DFBA0798AF803000222002120461CF08A
:1059B0000EFB022801D0032813D03078402811D1E3
:1059C000A0791BF0FDFC0646307BC1070AD5A07903
:1059D0001BF004FB052119F039FD307B00F0FE00BF
:1059E0003073A7E01CF09CF810F01F0F44D001208A
:1059F00018F088F820B1012018F0BCF818F02EF843
:105A0000082018F07FF820B1082018F0B3F818F03B
:105A100025F8B878FFF7B2FA06467168019111B916
:105A20004FF0020B03E000991CF024FB8346022296
:105A3000002120461CF0CBFA022803D0032879D09D
:105A4000834602E0BBF1020F16D03078012802D065
:105A5000082862D00DE0BBF1000F06D11CF0C0FD9C
:105A6000019900F5E8504C30886011202870012120
:105A700050E0002019F088FA009933480A78802A0B
:105A80000BD10821297000780128D8F814001ABF1A
:105A9000D9F82410097801210AE007222A70007839
:105AA0000128D8F814000EBF0121D9F82410497834
:105AB000C172A0798AF80200009832E01CF030F838
:105AC00010F01F0F36D0012018F01CF820B1012073
:105AD00018F050F817F0C2FF082018F013F820B1A2
